:020000040000fa
:080000000002040000000000f2
:020000040000fa
:0400080012040000de
:020000040000fa
:04000c0012040000da
:020000040000fa
:0400100012040000d6
:020000040000fa
:0400140012040000d2
:020000040000fa
:0400180012040000ce
:020000040000fa
:04001c0012040000ca
:020000040000fa
:0400200012040000c6
:020000040000fa
:0400240012040000c2
:020000040000fa
:0400280012040000be
:020000040000fa
:04002c0012040000ba
:020000040000fa
:0400300012040000b6
:020000040000fa
:0400340012040000b2
:020000040000fa
:0400380012040000ae
:020000040000fa
:04003c0012040000aa
:020000040000fa
:0400400012040000a6
:020000040000fa
:0400440012040000a2
:020000040000fa
:04004800b6030000fb
:020000040000fa
:04004c00120400009a
:020000040000fa
:040050001204000096
:020000040000fa
:04005400fa020000ac
:020000040000fa
:04005800120400008e
:020000040000fa
:04005c00120400008a
:020000040000fa
:040060001204000086
:020000040000fa
:040064001204000082
:020000040000fa
:04006800120400007e
:020000040000fa
:04006c00120400007a
:020000040000fa
:040070001204000076
:020000040000fa
:040074001204000072
:020000040000fa
:040078003a03000047
:020000040000fa
:04007c00120400006a
:020000040000fa
:040080001204000066
:020000040000fa
:040084001204000062
:020000040000fa
:04008800120400005e
:020000040000fa
:04008c00120400005a
:020000040000fa
:040090001204000056
:020000040000fa
:04009400e403000081
:020000040000fa
:04009800120400004e
:020000040000fa
:04009c0078030000e5
:020000040000fa
:0400a0001204000046
:020000040000fa
:0400a4001204000042
:020000040000fa
:0400a800120400003e
:020000040000fa
:0400ac00120400003a
:020000040000fa
:0400b0001204000036
:020000040000fa
:0400b4001204000032
:020000040000fa
:0400b800120400002e
:020000040000fa
:0400bc00120400002a
:020000040000fa
:0400c0001204000026
:020000040000fa
:0400c4001204000022
:020000040000fa
:0400c800120400001e
:020000040000fa
:0400cc00120400001a
:020000040000fa
:0400d0001204000016
:020000040000fa
:0400d4001204000012
:020000040000fa
:0400d800120400000e
:020000040000fa
:0400dc00120400000a
:020000040000fa
:0400e0001204000006
:020000040000fa
:0400e4001204000002
:020000040000fa
:0400e80012040000fe
:020000040000fa
:0400ec0012040000fa
:020000040000fa
:0400f00012040000f6
:020000040000fa
:0400f40012040000f2
:020000040000fa
:0400f80012040000ee
:020000040000fa
:0400fc0012040000ea
:020000040000fa
:0401000012040000e5
:020000040000fa
:0401040012040000e1
:020000040000fa
:0401080012040000dd
:020000040000fa
:04010c0012040000d9
:020000040000fa
:0401100012040000d5
:020000040000fa
:0401140012040000d1
:020000040000fa
:0401180012040000cd
:020000040000fa
:04011c0012040000c9
:020000040000fa
:0401200012040000c5
:020000040000fa
:0401240012040000c1
:020000040000fa
:0401280012040000bd
:020000040000fa
:04012c0012040000b9
:020000040000fa
:0401300012040000b5
:020000040000fa
:0401340012040000b1
:020000040000fa
:0401380012040000ad
:020000040000fa
:04013c0012040000a9
:020000040000fa
:0401400012040000a5
:020000040000fa
:0401440012040000a1
:020000040000fa
:04014800120400009d
:020000040000fa
:04014c001204000099
:020000040000fa
:040150001204000095
:020000040000fa
:040154001204000091
:020000040000fa
:04015800120400008d
:020000040000fa
:04015c001204000089
:020000040000fa
:040160001204000085
:020000040000fa
:040164001204000081
:020000040000fa
:04016800120400007d
:020000040000fa
:04016c001204000079
:020000040000fa
:040170001204000075
:020000040000fa
:040174001204000071
:020000040000fa
:04017800120400006d
:020000040000fa
:04017c001204000069
:020000040000fa
:040180001204000065
:020000040000fa
:040184001204000061
:020000040000fa
:04018800120400005d
:020000040000fa
:04018c001204000059
:020000040000fa
:040190001204000055
:020000040000fa
:040194001204000051
:020000040000fa
:04019800120400004d
:020000040000fa
:04019c001204000049
:020000040000fa
:0401a0001204000045
:020000040000fa
:0401a4001204000041
:020000040000fa
:0401a800120400003d
:020000040000fa
:0401ac001204000039
:020000040000fa
:0401b0001204000035
:020000040000fa
:0401b4001204000031
:020000040000fa
:0401b800120400002d
:020000040000fa
:0401bc001204000029
:020000040000fa
:0401c0001204000025
:020000040000fa
:0401c4001204000021
:020000040000fa
:0401c800120400001d
:020000040000fa
:0401cc001204000019
:020000040000fa
:0401d0001204000015
:020000040000fa
:0401d4001204000011
:020000040000fa
:0401d800120400000d
:020000040000fa
:0401dc001204000009
:020000040000fa
:0401e0001204000005
:020000040000fa
:0401e4001204000001
:020000040000fa
:0401e80012040000fd
:020000040000fa
:0401ec0012040000f9
:020000040000fa
:0401f00012040000f5
:020000040000fa
:0401f40012040000f1
:020000040000fa
:0401f80012040000ed
:020000040000fa
:0401fc0012040000e9
:020000040000fa
:0402000012040000e4
:020000040000fa
:0402040012040000e0
:020000040000fa
:0402080012040000dc
:020000040000fa
:04020c0012040000d8
:020000040000fa
:0402100012040000d4
:020000040000fa
:0402140012040000d0
:020000040000fa
:0402180012040000cc
:020000040000fa
:04021c0012040000c8
:020000040000fa
:0402200012040000c4
:020000040000fa
:0402240012040000c0
:020000040000fa
:0402280012040000bc
:020000040000fa
:04022c0012040000b8
:020000040000fa
:0402300012040000b4
:020000040000fa
:0402340012040000b0
:020000040000fa
:0402380012040000ac
:020000040000fa
:04023c0012040000a8
:020000040000fa
:0402400012040000a4
:020000040000fa
:0402440012040000a0
:020000040000fa
:04024800120400009c
:020000040000fa
:04024c001204000098
:020000040000fa
:040250001204000094
:020000040000fa
:040254001204000090
:020000040000fa
:04025800120400008c
:020000040000fa
:04025c001204000088
:020000040000fa
:040260001204000084
:020000040000fa
:040264001204000080
:020000040000fa
:100400000f0b21000eff27000e01880000000000e6
:10041000000020000000e000020032000001200087
:100420002002880014000700000107000000e0001f
:1004300003003a002089210001002000020037005b
:100440000000200001002000810f70000100320038
:100450000f000700000020000000e0000200320052
:10046000000002000000000034160200000000003e
:100470000040da000000fe00a00820000000e000bc
:1004800002003200002020009001880000000600d9
:10049000a1028800800478000000eb001f003700f4
:1004a000e284440054a0b4009905ba00e2844400f8
:1004b00054a0b4009906ba00e284440054a0b400e9
:1004c0000006eb00476fde00fd07b200ae018800ba
:1004d000636ce10003003a000ad801000000eb0061
:1004e0000e003700606ce10008003a00004deb00a0
:1004f0000a05e800020039003420ec000af0a000f0
:100500008b05e900f9ff3e00040037006168e10057
:10051000010032000086eb000b00070019c7ba008b
:100520000e04e0001905ba0003003a000a00e000da
:10053000dbff3a0000000600fe07b200ae028800b2
:100540008a047800f5ff37000cd0a300e20f4d00bd
:100550001c003b0089027800354dba000a05e8000e
:10056000020039003420ec000af0a0008b05e900fd
:100570000f003200254dba000a05e80002003900dc
:100580003420ec000af0a0008b05e90008003200de
:100590000c00e0000600320015cdba000a05e800a4
:1005a000020039003420ec000af0a0008b05e900bd
:1005b0008984e80054a0b4000b00e000e2ff3a0098
:1005c000000006009902ba00055d78008b05e9007d
:1005d000f7ff3200c82ade00055d78008b05e900d0
:1005e000f3ff32000c00e000f1ff320019ddba0029
:1005f000eeff37003600f800809fbe00829fbe00ed
:10060000849fbe00869fbe003200f8003400f800d0
:1006100010002000a00188000020200000d0fe0073
:100620000000fa000168a9000500370030118000c1
:100630000040780080407800c00021004809070091
:1006400010118000610060000000e000f7ff3a0038
:100650000080fa003400f9003200f9004f03be00b8
:100660004f02be004f01be004f00be003600f90031
:10067000004006003600f800809fbe00829fbe004a
:10068000849fbe00869fbe003200f8003400f80050
:1006900010002000a00188000020200000d0fe00f3
:1006a0000000fa000288a9002142800080ff2f008c
:1006b000008060000000a000204288002108a800ff
:1006c000a100200030002000c80707000080fa00c9
:1006d0003400f9003200f9004f03be004f02be00a3
:1006e0004f01be004f00be003600f900004006007a
:1006f0003600f800809fbe00829fbe00849fbe002f
:10070000869fbe003200f8003400f8001000200080
:10071000a00188000020200000d0fe000000fa00a8
:1007200003a8a90061428000f0ff2800008060005b
:1007300000c0a000604288002368a800a10020003b
:1007400040002000a90707000080fa003400f900eb
:100750003200f9004f03be004f02be004f01be0041
:100760004f00be003600f90000400600809fbe002a
:100770003200f8003400f80010002000a0018800ca
:100780000020200000d0fe000000fa0013e1a900c4
:100790000108a9002108a9001172800000102000a2
:1007a000008060000000e00002003a00100020001d
:1007b000408088000080fa003400f9003200f9001f
:1007c0004f00be0000400600809fbe003200f800cf
:1007d0003400f80010002000a00188000020200054
:1007e00000d0fe000000fa001fe1a9000368a90084
:1007f0002368a900117280000020200000806000a2
:100800000000e00002003a00100020005080880044
:100810000080fa003400f9003200f9004f00be00f9
:10082000004006000040da000000fe000000050065
:10083000839f68000100e00002003d00600010009e
:10084000e08018000300e00002003d00600111009c
:10085000e0811900050007004f00e00002003b00a6
:1008600060001000e0801800000006006022b80060
:10087000060220000000d0008180d2000482d20055
:100880008582d2000000a0000202520083825a003a
:10089000030031000202420083824a000000a100ee
:1008a0000603e900f3ff3a00000006000000fa002a
:1008b00068815700cfb89700f50107000080fa0063
:1008c000000006000600070061000700160107008f
:1008d000400107009700070049020700f0013700b8
:1008e000ec874700889fbe008a9fbe008c9fbe0099
:1008f0008e1f780000067800010478001807900029
:100900002805900098067800cdb79f00b8059000a4
:10091000120278009202900022039000b20390002d
:100920000400be000601be004f18de006011b800d2
:100930008000eb00d0b79f00e1b79f00f2b79f00a7
:1009400083bf9f00800478000900e00006003200a9
:100950006000b8006011b8000402500085825800a1
:1009600006035900878359000e00e000020035009d
:100970000d10a100cdb79f000900e00005003a006e
:100980004fb097000028a30002003a000038a300ef
:10099000020032008a00e900010037008a00780076
:1009a000f8815700a2002000080078008b000700a3
:1009b0000900e00003003a00cfb097000128a3002f
:1009c000080032000000e90000814500b1c2b30018
:1009d0000900e00001003200d1c2b30001497800f3
:1009e000060037000138a300040032000000e900cf
:1009f0008080450002c2b300824878004801900020
:100a00000201e90000015100808045004fb29700cb
:100a10008a0178000c007800440207009c009000d6
:100a20000188a3000400320098009000810f50005c
:100a300001003d00010078004f0778004f06be001e
:100a40004f05be004f04be00cf00b10000000600fd
:100a50000200fa00889fbe008a9fbe0080057800d1
:100a60000104780002007800180190002805900029
:100a700098007800b1bf9f00b80490000200e00029
:100a8000020035000110a100b1bf9f00ea815700ac
:100a9000820020008a007800100278009002900006
:100aa00020039000b0039000080078004b0007007e
:100ab0003fb99700f0006100040032000000e90037
:100ac0008080440002c3b300824878003fb9970099
:100ad000e8006100040032000000e900808044006a
:100ae00002c2b30082487800480190000201e90088
:100af00000015100808044003fba97008a017800cd
:100b00000b007800090207009b0090000188a300f9
:100b10000400320098009000810f500001003d0059
:100b2000010078004f05be004f04be000080fa00af
:100b300000000600ea874700889fbe008a9fbe002b
:100b40008e1f780000047800030078007287570039
:100b500084e2260055c72600049fbe00c3962200eb
:100b6000030f78006c875700004feb0011059000d1
:100b7000a1049000910578000200e000020032001c
:100b80000207780001003700728757000000e0007c
:100b900002003a000e007800610407000a00e0003d
:100ba000030035008a0f5000010036000a0078006b
:100bb0000b02780089017800000178008e0078002f
:100bc00008007800d90107004f0778004f05be00e4
:100bd0004f04be00af00b10000000600f4874700dc
:100be000889fbe008a9fbe008c9fbe008e1f78002b
:100bf0000605be000404be0081bf9f0082b79f00af
:100c0000f3b79f00b0009000e1b79f001301780098
:100c100092b79f0090069000400090000000e9000d
:100c2000000678000d00e00001003d001d002000de
:100c3000efb19700008041000048eb001e0020004b
:100c40001f0037000c06e9000fb09700cf80de00d0
:100c50006109b900a0b79f00b1b79f00c2b79f005c
:100c6000d3b79f000203be000002be000800be0012
:100c70000a01be008105070000077800efb0970069
:100c80000c80400003c3b300034847008d06e90011
:100c90000fb897000000e90080bf9f002fb29700b7
:100ca000bfb297004fb39700dfb397000800be00b4
:100cb0000a01be006a0507000205be000004be006e
:100cc0000c00e0000d003400e00f5400e08f5c00e9
:100cd000e00f5d00e08f5d00daff3a000d00e000fc
:100ce000d8ff3c008fb897000100e00003003400fb
:100cf0001fb197000218a300d2ff3a000e00e000d7
:100d000002003a00ffb197001340a1000c007800e8
:100d10004f0778004f06be004f05be004f04be00cf
:100d20004f01b100000006000200fa00889fbe00db
:100d30008a9fbe0000057800010478000200780058
:100d400018019000a804900098007800b1bf9f009f
:100d5000b80590000200e000020035000110a1007b
:100d6000b1bf9f00ea815700a200200089007800ef
:100d7000100278009002900020039000b0039000d1
:100d80000800780095ff0700480190000201e90083
:100d900000015100808045003fba9700890178002a
:100da0000a007800610107009a0090000188a30002
:100db0000400320098009000810f500001003d00b7
:100dc000010078004f05be004f04be000080fa000d
:100dd00000000600fa874700889fbe008a9fbe0079
:100de0008c9fbe008e1f780080047800010478007c
:100df00082057800180190002805900018077800f7
:100e0000b80090000200e000020035000e10a100c2
:100e1000010037001200200070006700e0b79f005b
:100e20000b0032001b0278009b0290002b03900005
:100e3000bb039000e00f5200e08f5a00e00f5b0010
:100e4000e08f5b00020032008a86e9000100370073
:100e50008a067800e8026700f5b79f0001003200bb
:100e60008d06e9001b0278009b0290002b03900086
:100e7000bb039000e4af9f00f5af9f0086b79f00d3
:100e800097b79f00480690000c06e9000c804000d0
:100e90000048eb00efb297007fb29700890378001b
:100ea00081047800d8af9f00020478008bbf9f00b8
:100eb0008a057800034578002b0037000c06e9000e
:100ec0006fab97006f006300e90f500002003c0019
:100ed0000003b000010037007005b0000a03fb00fa
:100ee0001604b100f90f53000c003e000003780017
:100ef0000650a0001606b100f90f530007003e008f
:100f0000b4b79f00a5b79f00c7b79f00a303070012
:100f1000cfb39700afb297003fb297000c83440065
:100f2000004b78000804e9008d06e9006fa89700df
:100f3000ffa897000fb197009fb1970046002000cf
:100f40008301d1000281d3008180d3000080d300cf
:100f50000603e900faff3a00e0af9f00f1af9f00ff
:100f600082b79f0093b79f00e10f56000f00340037
:100f70006fa89700ffa897000fb197009fb1970047
:100f8000e00f5000e08f5800e00f5900e08f59004b
:100f9000caff3a000800e000c8ff3c000d00e00076
:100fa000020034000e18a300c4ff3a008900780044
:100fb000f4b79f00870478005fac97008a417800ff
:100fc0000b0578008fbd97000500e000140032008b
:100fd0001b0278009b0290002b039000bb03900043
:100fe000e4af9f00f5af9f0086b79f0097b79f00c3
:100ff000e00f5200e08f5a00e00f5b00e08f5b00d3
:10100000070032000c06e9000c804000034878001d
:101010000c06e9000c80400002c3b30002487800cf
:10102000ffb297000500e000040032000c06e90062
:101030000c80400002c2b3000248780048019000d2
:101040000201e9000c0151008c8040000e02780082
:101050008a01780009007800b40007009900900028
:101060000188a3000400320098009000810f500016
:1010700001003d00010078004f0778004f06be00d8
:101080004f05be004f04be00af01b10000000600d6
:101090008201780001017800f1ff27004603370044
:1010a00084082000848f50001d0032000d003c0099
:1010b00014082000848f50002700320002003c00fa
:1010c000040820000400370024082000848f50000a
:1010d0003600320044082000848f500047003a0058
:1010e0003a003700040a2000848f500029003200a3
:1010f00004003c0004092000848f50003f003a00a7
:101100002a003700020c2000828f5000330032008a
:10111000020f2000828f500038003a002f00370065
:101120009380e9000200e0000500320081097800a8
:101130001102fb00cfa2de00612bb9002c003700aa
:1011400081097800114278000482fb008002eb00e4
:101150006033b8002600370013027800e400520024
:101160000200e000060032008109780011027800d8
:10117000910290004fabde00860378001c00370020
:101180008109780011027800910290006033b80064
:10119000170037009380e900810978001102780078
:1011a000cfa2de00612bb900110037009302780056
:1011b000e8805200810978001102780091029000c5
:1011c00021039000b1039000090037009380e900eb
:1011d0000200e00002003200efff37009380e900d8
:1011e00081097800110278008002eb006033b800ba
:1011f0000498be000690be00100005000000050027
:1012000044082000848f50002500320008003c0074
:1012100014082000848f500014003200240820009d
:10122000848f500024003200040820000c00370096
:1012300004092000848f50001f00320004003c008d
:1012400084082000848f500024003a000e003700ec
:10125000040a2000848f500011003200040c20008a
:10126000848f50001d003a000d0037009380e90084
:10127000810978009100780001087800cf91de00a4
:101280008288be00140037009380e900810978004d
:101290009100780001087800824878000e0037003d
:1012a0009380e900810978009100780001087800b6
:1012b00082087800080037009380e90081097800ef
:1012c00091007800010878006112b900612bb90023
:1012d0008498be008690be00100005000000050046
:1012e000889fbe00000478004800900082047800c7
:1012f000808f5400010036008004780009017800d6
:10130000580090001b0207005800900009004000a0
:1013100050049800c8009000898450004904980047
:101320000048eb004f04be0000000600f2874700b3
:10133000889fbe008a9fbe008c9fbe008e1f7800d3
:1013400080047800010578000204780083057800a5
:101350006107620002003a008b0f54000800390058
:10136000080178008a00780009007800dcff070097
:101370008b0f540002003900880578001e003700ea
:10138000088655000c017800f00f56000100360069
:1013900002012000010220007e805700fc010700ae
:1013a0008c0678000500370002012000fe805700ff
:1013b00009007800caff0700f0865600ef8f56003c
:1013c000f9ff3e004461de0000ff2f008091b9006c
:1013d0000c014100fe80570009007800c0ff0700a3
:1013e0000e00e00004003a00080178008a0078004e
:1013f00009007800baff07000b0078004f0778005b
:101400004f06be004f05be004f04be002f01b100c5
:1014100000000600000005000000050000000500b7
:10142000000178000040eb008080fb0081804000dc
:101430008309210081814100134278000404e00007
:1014400004003a009009210081004000114078001a
:101450000000060092017800934f520005003a0008
:101460009009210081004000114078000309e80044
:10147000010037000040e800ea4f5000eaff360064
:1014800000000600f6874700889fbe008a9fbe00c6
:101490008c9fbe008e1f7800000578000104780044
:1014a00083057800040678000000eb00c0b79f00b9
:1014b0008080eb00d1b79f00e0b79f00f2b79f009c
:1014c0000008200080bf9f0098007800010078008d
:1014d0008004eb00010037008904e8003041780007
:1014e0000204e0000300320053c2b300834f5100f6
:1014f000f9ff3a000900e000040032000901780019
:101500000a00780076ff0700188c4400180778005e
:1015100050c2b3009e4f10003f013a000e07e80092
:101520000e0c780010003700cfb097000100a0002b
:101530000b003700cfb097000110a0000800370063
:10154000cfb097000120a00005003700cfb0970072
:101550000130a00002003700cfb097000140a0008a
:10156000c1b79f00000ce800180078009040780098
:10157000b2c2b30082cf5000f1ff320007003c003e
:1015800002c2b30082cf5000f0ff320032c2b3007b
:1015900082cf500007003a00efff3700d2c2b300fd
:1015a00082cf5000e0ff320002c3b30082cf500070
:1015b000e0ff3200a2c2b30082cf50000d003a001b
:1015c000000ce8001c80e900000e78001000780094
:1015d000e0b79f000000e0000f003d00cfb0970093
:1015e0000100a200c1b79f000000ea00e0b79f0021
:1015f0000900370039010700e0b79f0001003700fc
:10160000000ce800180078009000fb000103b10016
:10161000e98f5000faff36004fb097000008a30092
:10162000020032000010a100c0b79f00180078002f
:10163000e1c2b30090cf100016003a008000eb002a
:10164000d1b79f000000e800000c7800a1c2b300f1
:1016500090cf100006003a00000ce8001c80e90062
:10166000000e780010007800d0b79f000900370006
:101670001a010700d0b79f0001003700000ce800f6
:10168000180078009000fb000103b100e98f5000c2
:10169000faff36000800780061ff070080467800f6
:1016a000180078001000fb00b5010700910620002b
:1016b000810f50003800320012003c00410620002b
:1016c000810f5000340032000a003c001106200057
:1016d000810f50002000320031062000810f5000a1
:1016e000a000320051022000810f5000bc003a00df
:1016f000b400370071062000810f5000b8003c0094
:101700008800370001072000810f50005c00320084
:1017100007003c00e1062000810f50007a003200f3
:10172000f1062000810f5000ad003a00390037006b
:1017300051072000810f5000270032008107200050
:10174000810f50004200320031072000810f50000d
:10175000a3003a008f0037008d80fb000c01780059
:1017600000fe2f000f004000b80107000000e0005d
:10177000a800320018007800000ce80090417800c2
:1017800002fe2f000f014100f88057000a00780088
:1017900021ff07000e0037008d80fb008c017800d0
:1017a0001200200000fe2f000f0040003cfe07004a
:1017b0000000e00097003200180ce80002fe2f0045
:1017c0000f014100f88057000a00780044fc070030
:1017d00080844400900037008d80fb008c017800ed
:1017e0000001eb0000fe2f000f0040002cfe070060
:1017f0000000e00087003200180ce80002fe2f0015
:101800000f014100f88057000a00780046fd0700ec
:10181000efff37008d80fb008c0178000001eb00aa
:1018200000fe2f000f0040001dfe07000000e0003a
:1018300078003200180ce80002fe2f000f01410072
:10184000f88057000a00780081fc0700e0ff3700ad
:101850008d80fb008c0178000001eb0000fe2f0062
:101860000f0040000efe07000000e000690032009b
:1018700018007800000ce800904178001c00370048
:101880008c0178000001eb00010f200000fe2f000a
:101890000f00400002fe07000000e0005d00320083
:1018a000180ce8000fb097009fb097002fb1970079
:1018b000bfb19700e00f5000e08f5800e00f5900d3
:1018c000e08f590009003a00cfb597006fb4970038
:1018d00000092100120107000b027800880178003e
:1018e00000017800010921004700370083c7b300d9
:1018f00002fe2f000f014100f88057000a00780017
:1019000034fd0700b2ff37000b8144008d80fb00df
:101910008c01780000fe2f000f00400038fe070009
:101920003c0037008d80fb000c01780000fe2f008a
:101930000f004000450107000000e00035003200c4
:1019400018007800000ce8009041780002fe2f009b
:101950000f014100f88057000a007800aefe070032
:101960009bff370000c8b30080cf560029003a0023
:10197000180ce8001c80e900000e78001040780088
:10198000e0df9f0013002000e2fd2f000f01410067
:101990000800370000c8b30080cf56001d003a0091
:1019a000180ce8001c80e900000e78008001eb00b4
:1019b00010017800f88057000a0078005dfc0700ed
:1019c00083ff370000c8b30080cf560011003a00f3
:1019d000180ce8004fb29700efb1970008003700ed
:1019e0000e0c78000000eb00c0b79f00e0b79f002e
:1019f0000080eb00d0b79f000002eb00840178006c
:101a000012002000610921000a00780047fe07004b
:101a10006fff3700180ce800090078004f077800c6
:101a20004f06be004f05be004f04be006f01b1005f
:101a3000000006008200fa00889fbe008a1f78001e
:101a40000005780082047800c13f9f000004eb008d
:101a5000100037000902780088017800a2f72f00f3
:101a60000f01410081f72f008f8040000a007800ad
:101a700084fe070008004000880f500004003d006d
:101a8000b0042000708588000084eb00040037005b
:101a9000000478004f3897001004e000edff3a0092
:101aa000080078004f0578004f04be000080fa005f
:101ab00000000600800078001000200002022000d4
:101ac000828f500004003200e9805000e48f500003
:101ad000010036000000eb0000000600889fbe00f9
:101ae0008a1f7800000578000a047800984478007e
:101af0000805e8000900fb00eeff07000000e00019
:101b0000f9ff3a00b0c2b30080cf540005003200a4
:101b1000d0c2b3008000eb0080cf540005003a0033
:101b2000020037008000eb000100370011002000a8
:101b30000804e8000000eb0003003700ea00b900e9
:101b4000020050000003b0003801fb0003fd2f002d
:101b500082814100e98f5100f8ff36000100e0006a
:101b600001003a000000ea004f0578004f04be0073
:101b7000000006008001780002003700b1597800ab
:101b80000201e9000200e000fcff3a00000006004c
:101b9000889fbe008a9fbe00800478000200e0009b
:101ba0005b00320001407800814c78008281440063
:101bb000f1f99f00e20f5100550036009144980062
:101bc000a1449800e1f99f00d1f99f00e60f510070
:101bd0004f003600b1449800c1f99f00e80f510052
:101be0004b0036000905ea00630565000a844400dd
:101bf0000a055100c1ff2f00010565000080fb00b0
:101c00008000eb001210200013102000f3000700ea
:101c1000008cbe000a01440060b99f0071b99f00aa
:101c2000e80f55003a00360020049800310498006f
:101c3000400498005104980020b99f0031b99f00da
:101c400040b99f0051b99f00f80f55003000360091
:101c50006004980071049800000c9800110c980022
:101c6000200c9800310c9800400c9800510c980002
:101c700020b19f0031b19f0040b19f0051b19f0042
:101c800060b19f0071b19f0000b99f0011b99f0022
:101c9000640164007801410002044400020555001b
:101ca0006011b8000203be000002be000403be00c3
:101cb0006022b8000000720081807200020173008f
:101cc0008381730010003700009cbe000294be00a8
:101cd000400498005104980062049800730498002e
:101ce000000c9800110c9800220c9800330c9800fe
:101cf000400c9800510c9800620c9800730c9800ee
:101d00000a02b1000802b000ff0f5500eeff3e00ce
:101d1000090078004f05be004f04be000000060019
:101d200080007800040037003104e00002003a002f
:101d30000000510000000600010178000108a30026
:101d4000f9ff3a008101780031017800f4ef2f00ab
:101d5000020242000281ea00020162000408280037
:101d600004016100f7ff3200830078000101780070
:101d70003104e000fdff3a000000510000000600c1
:101d8000f1fb2f0080804000f98f500001003e00e1
:101d90000050a00000000600f9ff3700f1f92f0005
:101da00080804000f98f500001003e00f005b20035
:101db00000000600f9ff3700f28747008e1f780009
:101dc00002027800030178000000e0000200320007
:101dd0000007780001003700728757008002eb008f
:101de0000100e000010032008102e900708057002c
:101df000060009000018eb000080eb0080bf9f0088
:101e00002310200093bf9f00aebf9f00b1bf9f0073
:101e1000c5bf9f000100e00003003d00b1042000a9
:101e20007185880006003700004feb00eebf9f0071
:101e3000debf9f00840078007080570025000700f7
:101e40004f0778002f01b10000000600881f7800be
:101e50000004780000082000808f50001a00350030
:101e600010082000808f50000d0034003008200042
:101e7000808f500014003a00920078006880500073
:101e80000009780010027800900290002003900072
:101e9000b0039000049cbe000694be00080037000a
:101ea000920278006480520000097800900090004f
:101eb0001000780015000700009cbe000294be00d0
:101ec00010002000010037000000eb004f047800f4
:101ed000000006000200fa00881f78000004780065
:101ee000e2bf9f006481570008007800d1fe070020
:101ef000980090000148a300010032000080eb0030
:101f00004f0478000080fa0000000600810378008a
:101f10001d0007000001be006000b8000478a300a7
:101f200013003a006220e10015003e000d00390068
:101f30008301d1000281d3008180d3008301d100cd
:101f40000281d3008180d3008301d1000281d300bc
:101f50008180d3000538b000c42add00f300b20050
:101f60008381720007f0a70003f0a00000000600c4
:101f700083ff2700020020006110b900f9ff37003d
:101f800003ff2700f7ff3700c70ade00f107b200a2
:101f9000f50fb20008003200e1cf4200020032002b
:101fa0000170a00024000500810f700001003200c4
:101fb0000408050044000500810f700002003a008b
:101fc000140005008502e9000000400081c04800bf
:101fd000fcff3b000170a00024000500020ab900cc
:101fe000001bb9000200b8008100420081004300dc
:101ff00000000600889fbe008a9fbe003004420099
:10200000b0844a0030054b0090854b006000b10061
:102010000898be000a90be000440e10005c8e10037
:1020200006d0e10007d8e10002003100680040005e
:102030001008e8004f05be004f04be000000060077
:10204000889fbe008a9fbe00100478009004900014
:1020500020059000b00590000418540005985c001d
:1020600006185d0007985d00110020000440e100a3
:1020700005c8e10006d0e10007d8e1000100390001
:102080008000eb00108810004f05be004f04be001a
:10209000000006001200fa00889fbe008a9fbe0062
:1020a0008c9fbe00e0b79f00f1b79f0082bf9f00ea
:1020b00093bf9f000605be000404be000000eb00b5
:1020c000d0b79f00c0b79f00b0b79f00a0b79f00d8
:1020d00090b79f00000678005fb19700cfb09700df
:1020e000820141003fb097000200e00004003d0083
:1020f000370007007e805700beff0700030037004f
:10210000330007007e805700cdff0700dfb6970041
:102110000d00e0000c0035006fb29700ffb2970091
:102120000fbb97009fbb970010002000010020000c
:102130006011b80000027200818272000203730015
:10214000838373001b0007000c06e80001042000d5
:10215000810f5600e0ff3a000d00e00004003d0052
:102160000802be000a03be007e805700a1ff0700e0
:102170005fa897000000e00005003a001fb297003a
:10218000afb297003fb39700cfb3970009000700a5
:102190006fb09700ffb097000fb997009fb99700f5
:1021a0004f06be004f05be004f04be000080fa007f
:1021b000000006000100070000000600a4b79f0011
:1021c000b5b79f00c6b79f00d7b79f0000000600b5
:1021d0004f09de0082817100b3b79f004f01de001e
:1021e0008180400082807000a1b79f008fb097006f
:1021f0004f09de00000040000200700090b79f0011
:102200007fa897004f01de0081804000828070002f
:1022100081b79f000d0007004f3ade00000040002c
:1022200004007000f0af9f000800070004024200a5
:1022300085824a0006034b0087834b00dfff0700bf
:102240000802be000a03be00000006002fb297007d
:10225000bfb297004fb39700dfb3970000000600ae
:10226000881f780018002000881f780089ff070069
:102270008f87e9004f04780000000600801feb0004
:1022800084ff07008f87e90000000600889fbe00da
:102290008a9fbe00e00f5000e08f5800e00f590009
:1022a000e08f59000c003d006044b8006055b80054
:1022b0000000540081805c0002015d0083815d00ac
:1022c000180020001500070008003d001800070056
:1022d0000004eb00050037000004eb000f000700ce
:1022e00002003d001200070018002000dcff07007c
:1022f0000800e000060032006022b8006033b80039
:102300000000520081805a0002015b0083815b0063
:102310004f05be004f04be0000000600e00f520053
:10232000e08f5a00e00f5b00e08f5b0000000600ca
:102330006044b8006055b8000402540085825c0017
:1023400006035d0087835d0000000600889fbe00d5
:102350008a9fbe008c1f7800e00f5000e08f58006d
:10236000e00f5900e08f59000d003d006044b800b7
:102370006055b8000000540081805c0002015d00df
:1023800083815d001c0020000820e10009a8e10015
:102390000ab0e1000bb8e1000d003d000800370075
:1023a0000006eb00e00f5200e08f5a00e00f5b00e8
:1023b000e08f5b0006003d006044b8006055b80047
:1023c0000402540085825c0006035d0087835d0083
:1023d000aaff07000c00e000060032006022b800ef
:1023e0006033b8000000520081805a0002015b0097
:1023f00083815b004f0678004f05be004f04be008e
:0424000000000600d2
:020000040000fa
:10240400433d000025640000004400003d25000019
:102414006400000000000000000000000000000054
:1024240000000000000000000000000000000000a8
:102434000000000000000000000000000000000098
:102444000000000000000000000000000000000088
:102454000000000000000000000000000000000078
:102464000000000000000000000000000000000068
:102474000000000000000000000000000000000058
:102484000000000000000000000000000000000048
:102494000000000000000000000000000000000038
:1024a4000000000000000000000000000000000028
:1024b4000000000000000000000000000000000018
:1024c4000000000000000000000000000000000008
:1024d40000000000000000000000000000000000f8
:1024e40000000000000000000000000000000000e8
:1024f40000000000000000000000000000000000d8
:1025040000000000000000000000000000000000c7
:0425140000000000c3
:020000040000fa
:102518000000fa00300ea900316ea800000ea900d4
:10252800040ea9002136800000f82f00808060008a
:10253800b0042000010070002036880001348000bb
:1025480000fc2f00008060000000a000003488001c
:10255800c3e8a800401d2000401188002002a900ff
:102568000111800090ff2f0000806000001188009a
:1025780020a2a9002062a9000168a90021428000c8
:10258800f0ff28000080600000c0a0002042880002
:102598003142800080ff2f000080600030428800b8
:1025a8002168a80011118000f0f32f00008060005e
:1025b8001011880021e2a8002342a800c0002100d1
:1025c8004e010700010037000000000010118000d4
:1025d800620060000000e000fbff32002222a90038
:1025e800faff37000e00fa00889fbe008a9fbe00df
:1025f8008c9fbe0050079800610798000080eb0090
:10260800000f780000202a00a1442000300798001d
:10261800410798003e009000ce009000823e2000c6
:102628000300200080f80700100798002107980091
:102638006e009000cf80de002e0190008091b900de
:102648009e019000819ab90084017800030141003d
:102658009e0190000018b800010141008200780036
:102668001007980021079800100798002107980084
:102678001e019000ae019000f0ff2f000100200025
:10268800800f5100818f590003003c000000eb00cf
:10269800000f78003d0037001e019000ae01900049
:1026a800f0ff2f0071002000800f5100818f59002a
:1026b80010003c0010002000000f78001e00900061
:1026c800ae009000e00f5000e08f580002003d007f
:1026d80067004000e08048004d09dd004306de0049
:1026e8000c067100c38ede001c0798002d079800a9
:1026f800260037001e019000ae019000f0ff2f0069
:10270800f1032000800f5100818f590010003c0018
:1027180020002000000f78001e009000ae009000fe
:10272800e00f5000e08f580002003d00f003b000b9
:102738000180b0004a0add004605de000a05720085
:10274800c68dde001a0798002b0798000f00370087
:1027580030002000000f78001e009000ae009000ae
:10276800e00f5000e08f580002003d00f00fb0006d
:102778000180b0004809dd004804de00080471004b
:10278800c88cde0018079800290798005e009000a2
:10279800e10f500027003a000421a90004c1a90054
:1027a80005e1a9000021ef000068a9001e007800db
:1027b8000000e00005003a0021088000f0fc2f002e
:1027c8000080600020088800160037001e0078008e
:1027d800e10f500006003a0021088000f0fc2f00ad
:1027e800008060000040a000200888000d0037002d
:1027f8001e007800e20f500006003a002108800011
:10280800f0fc2f00008060000050a0002008880025
:102818000400370021088000000320000100700038
:10282800200888001e0090001008880005e1a80014
:102838007e0037005e009000e20f500027003a004b
:102848001021a90010c1a90011e1a9000621ef007b
:1028580000e8a9001e0078000000e00005003a002a
:1028680081088000f0fc2f0000806000800888004c
:10287800160037001e007800e10f500006003a00ed
:1028880081088000f0fc2f00008060000040a0005c
:10289800800888000d0037001e007800e20f500005
:1028a80006003a0081088000f0fc2f0000806000dc
:1028b8000050a000800888000400370081088000cc
:1028c8000003200001007000800888001e009000ae
:1028d8006008880011e1a800540037005e009000ed
:1028e800e30f500027003a001221a90012c1a900e5
:1028f80013e1a9000a21ef000108a9001e007800d1
:102908000000e00005003a0091088000f0fc2f006c
:102918000080600090088800160037001e007800cc
:10292800e10f500006003a0091088000f0fc2f00eb
:10293800008060000040a000900888000d0037006b
:102948001e007800e20f500006003a00910880004f
:10295800f0fc2f00008060000050a0009008880064
:102968000400370091088000000320000100700077
:10297800900888001e0090007008880013e1a800e5
:102988002a0037005e009000e40f500027003a004c
:102998001e21a9001ec1a9001fe1a9001421ef00f2
:1029a8000368a9001e0078000000e00005003a0056
:1029b800f1088000f0fc2f0000806000f00888001b
:1029c800160037001e007800e10f500006003a009c
:1029d800f1088000f0fc2f00008060000040a0009b
:1029e800f00888000d0037001e007800e20f500044
:1029f80006003a00f1088000f0fc2f00008060001b
:102a08000050a000f008880004003700f10880009a
:102a18000003200001007000f00888001e009000ec
:102a2800d00888001fe1a800000000004f06be0083
:102a38004f05be004f04be000080fa0000000600eb
:102a48000400fa00100798000000eb00000f78005f
:102a58001e009000e10f50000e003a000040800078
:102a6800680060000000e000040032001000200050
:102a7800000f7800010037000000000000408000cf
:102a8800680060000000e000fbff32000068a90059
:102a9800000000001e0078000080fa000000060018
:102aa8000400fa00000f7800110798009e009000bb
:102ab8001e007800cbfe0700010037000000000070
:102ac8000140800000082000008060000000e00055
:102ad800faff320011e1a90000e8a9000080fa001d
:102ae800000006000000fa0071002000200020000d
:102af800ebff07000080fa00000006000200fa0061
:102b0800000f78001e0078008000eb00018098001c
:102b18001e0078008000eb00118098000080fa0009
:102b2800000006000200fa00000f78001e0078007e
:102b3800808090001e00780010809000008068005f
:102b480000f0a7000000ea000000e9004f00de00e6
:102b58000080fa00000006000600fa00100798003e
:102b6800414798001e009000008090008000e80017
:102b7800f0072800008060000000e00004003d002d
:102b88000000e90001f82f00008070000000e80054
:102b9800000f78001e009000108090009e0f5000db
:102ba80002003a000080eb000a0037001e00900087
:102bb800008090009e00900000804000ce40900071
:102bc800014878001e0090009e007800018098005f
:102bd8000000eb000080fa00000006000400fa0084
:102be800000f7800110798001e007800cdff07003d
:102bf8000000e000020032000080eb001600370001
:102c08001e007800108090009e0078000080400030
:102c1800904078001e009000014878001e0078005f
:102c2800108090008000e800f00728000080600015
:102c38000000e00004003d000000e90001f82f005a
:102c4800008070000000e800800078001e00780016
:102c5800118098000000eb000080fa0000000600d8
:102c68000e01fa006e2eef007073800070728800fb
:102c780070728000f0718800f071800070718800b7
:102c880070718000f0708800f070800070708800ab
:102c98000080eb00500798000000eb00000f780060
:102ca8000000eb0010079800c02029009040780031
:102cb800514f9800ee0047007e0009008058eb0055
:102cc800c020290090407800514f99008e0078006c
:102cd800e108b0007e0009008058eb00d0c2b300c4
:102ce80040479800d0c2b30050479800d0c2b30004
:102cf800404f9800000ea900612ea900410ea800bf
:102d0800412ea800040ea900652ea900c3e8a8005a
:102d180001358000f00f28008080600000802500c9
:102d280001007000003588001135800000f82f0080
:102d38008080600090052000010070001035880038
:102d48000288a90003a8a9005142800080ff2f0033
:102d5800008060000000a00050428800714280009e
:102d6800f0f82f00008060000040a000704288004a
:102d7800c228a800c248a8002288a80023a8a80042
:102d8800300ea900316ea8002136800000f82f000f
:102d980080806000b00420000100700020368800a8
:102da8000134800000fc2f00008060000000a000bb
:102db80000348800401d2000401188002002a9002e
:102dc8000111800090ff2f00008060000011880032
:102dd80020a2a9002062a9000168a9002142800060
:102de800f0ff28000080600000c0a000204288009a
:102df8003142800080ff2f00008060003042880050
:102e080011118000f0f32f0000806000101188007d
:102e18002168a80021e2a8002342a800c0002100e0
:102e280036ff0700a100200010002000edfd07007c
:102e380001003700000000002aff07001e0fe8000d
:102e480010118000620060000000e0000100320004
:102e58002222a90040808000e10f500024003a009f
:102e68000830ef00318080006d004700811f780036
:102e780021202900811f78008af60700e48757007f
:102e88000000eb0030079800130037003e00900068
:102e98006d0040006e4078000004e000130032002e
:102ea8000000000011118000002020000080600058
:102eb8000000e000fbff3a003e0090006d0040007b
:102ec8006e4078000000fb00201188003e00900052
:102ed8000000e80030079800be009000f0072000ce
:102ee800808f5000e9ff3400010037000000000027
:102ef80050808000e10f500061003a000a30ef0076
:102f0800d00820000e0040009e009000811f78002d
:102f180071202900811f780062f60700e4875700b6
:102f28000000eb0040079800150037004e009000a5
:102f3800d008b0006e4078000004e00002003a00bb
:102f4800000000004f003700000000001111800051
:102f580000202000008060000000e000fbff3a0035
:102f68004e009000d008b0006e4078000000fb00d2
:102f7800201188004e0090000000e80040079800eb
:102f8800ce009000f0072000808f5000e7ff34004b
:102f98003c003700d01020000e0040008000780070
:102fa800c00021000dff0700308080000000e8000d
:102fb80030808800de409000414f9800ce4090005d
:102fc80051479800de48920041479800ce4890004b
:102fd800c0c4b30080cf500016003a00de40900015
:102fe80040c4b30080cf500012003a00ce40900099
:102ff80010c3b30080cf50000e003a00207080004c
:103008006100600000f0a7000000ea000000e9008d
:103018004f00de00004078000080fb006100600087
:10302800217080000100a10001007000207088005c
:1030380014003700ce489000c0c4b30080cf5000c1
:1030480010003a00de40900040c4b30080cf50002a
:103058000c003a00ce40900020c3b30080cf50004f
:1030680008003a002080800000f0a7000000ea0075
:103078000000e9004f00de002080880001003700d2
:1030880000000000c0002100a6fe07000000e000cc
:10309800c0ff3200700220009e007800808f500030
:1030a80014003a000000eb00000f78002080800038
:1030b800e10f50000f003a0021738000002020002b
:1030c8000080600000f0a7000000ea000000e900ae
:1030d8004f00de00004078000080fb0061006000c7
:1030e8004900dd00217380000190a10001007000fb
:1030f800207388001000200051fe07005007980038
:103108005e0090000000e0004aff32001e009000c0
:0c3118000000e8001007980047ff370097
:020000040000fa
:103124000c1000008400000080000000001000006b
:1031340006000000820000006161610000010000df
:10314400061000000600000080000000901000003f
:103154001e00000082000000286e69006c29000037
:1031640025006800076c09004c836a009074a00075
:103174007ac000008068880000846c0082008100ae
:10318400ae100000020000008000000000000000fb
:00000001FF
