:020000040000fa
:080000000002040000000000f2
:020000040000fa
:040008006e03000083
:020000040000fa
:04000c006e0300007f
:020000040000fa
:040010006e0300007b
:020000040000fa
:040014006e03000077
:020000040000fa
:040018006e03000073
:020000040000fa
:04001c006e0300006f
:020000040000fa
:040020006e0300006b
:020000040000fa
:040024006e03000067
:020000040000fa
:040028006e03000063
:020000040000fa
:04002c006e0300005f
:020000040000fa
:040030006e0300005b
:020000040000fa
:040034006e03000057
:020000040000fa
:040038006e03000053
:020000040000fa
:04003c006e0300004f
:020000040000fa
:040040006e0300004b
:020000040000fa
:040044006e03000047
:020000040000fa
:04004800fa020000b8
:020000040000fa
:04004c006e0300003f
:020000040000fa
:040050006e0300003b
:020000040000fa
:040054006e03000037
:020000040000fa
:040058006e03000033
:020000040000fa
:04005c006e0300002f
:020000040000fa
:040060006e0300002b
:020000040000fa
:040064006e03000027
:020000040000fa
:040068006e03000023
:020000040000fa
:04006c006e0300001f
:020000040000fa
:040070006e0300001b
:020000040000fa
:040074006e03000017
:020000040000fa
:04007800340300004d
:020000040000fa
:04007c006e0300000f
:020000040000fa
:040080006e0300000b
:020000040000fa
:040084006e03000007
:020000040000fa
:040088006e03000003
:020000040000fa
:04008c006e030000ff
:020000040000fa
:040090006e030000fb
:020000040000fa
:040094006e030000f7
:020000040000fa
:040098006e030000f3
:020000040000fa
:04009c006e030000ef
:020000040000fa
:0400a0006e030000eb
:020000040000fa
:0400a4006e030000e7
:020000040000fa
:0400a8006e030000e3
:020000040000fa
:0400ac006e030000df
:020000040000fa
:0400b0006e030000db
:020000040000fa
:0400b4006e030000d7
:020000040000fa
:0400b8006e030000d3
:020000040000fa
:0400bc006e030000cf
:020000040000fa
:0400c0006e030000cb
:020000040000fa
:0400c4006e030000c7
:020000040000fa
:0400c8006e030000c3
:020000040000fa
:0400cc006e030000bf
:020000040000fa
:0400d0006e030000bb
:020000040000fa
:0400d4006e030000b7
:020000040000fa
:0400d8006e030000b3
:020000040000fa
:0400dc006e030000af
:020000040000fa
:0400e0006e030000ab
:020000040000fa
:0400e4006e030000a7
:020000040000fa
:0400e8006e030000a3
:020000040000fa
:0400ec006e0300009f
:020000040000fa
:0400f0006e0300009b
:020000040000fa
:0400f4006e03000097
:020000040000fa
:0400f8006e03000093
:020000040000fa
:0400fc006e0300008f
:020000040000fa
:040100006e0300008a
:020000040000fa
:040104006e03000086
:020000040000fa
:040108006e03000082
:020000040000fa
:04010c006e0300007e
:020000040000fa
:040110006e0300007a
:020000040000fa
:040114006e03000076
:020000040000fa
:040118006e03000072
:020000040000fa
:04011c006e0300006e
:020000040000fa
:040120006e0300006a
:020000040000fa
:040124006e03000066
:020000040000fa
:040128006e03000062
:020000040000fa
:04012c006e0300005e
:020000040000fa
:040130006e0300005a
:020000040000fa
:040134006e03000056
:020000040000fa
:040138006e03000052
:020000040000fa
:04013c006e0300004e
:020000040000fa
:040140006e0300004a
:020000040000fa
:040144006e03000046
:020000040000fa
:040148006e03000042
:020000040000fa
:04014c006e0300003e
:020000040000fa
:040150006e0300003a
:020000040000fa
:040154006e03000036
:020000040000fa
:040158006e03000032
:020000040000fa
:04015c006e0300002e
:020000040000fa
:040160006e0300002a
:020000040000fa
:040164006e03000026
:020000040000fa
:040168006e03000022
:020000040000fa
:04016c006e0300001e
:020000040000fa
:040170006e0300001a
:020000040000fa
:040174006e03000016
:020000040000fa
:040178006e03000012
:020000040000fa
:04017c006e0300000e
:020000040000fa
:040180006e0300000a
:020000040000fa
:040184006e03000006
:020000040000fa
:040188006e03000002
:020000040000fa
:04018c006e030000fe
:020000040000fa
:040190006e030000fa
:020000040000fa
:040194006e030000f6
:020000040000fa
:040198006e030000f2
:020000040000fa
:04019c006e030000ee
:020000040000fa
:0401a0006e030000ea
:020000040000fa
:0401a4006e030000e6
:020000040000fa
:0401a8006e030000e2
:020000040000fa
:0401ac006e030000de
:020000040000fa
:0401b0006e030000da
:020000040000fa
:0401b4006e030000d6
:020000040000fa
:0401b8006e030000d2
:020000040000fa
:0401bc006e030000ce
:020000040000fa
:0401c0006e030000ca
:020000040000fa
:0401c4006e030000c6
:020000040000fa
:0401c8006e030000c2
:020000040000fa
:0401cc006e030000be
:020000040000fa
:0401d0006e030000ba
:020000040000fa
:0401d4006e030000b6
:020000040000fa
:0401d8006e030000b2
:020000040000fa
:0401dc006e030000ae
:020000040000fa
:0401e0006e030000aa
:020000040000fa
:0401e4006e030000a6
:020000040000fa
:0401e8006e030000a2
:020000040000fa
:0401ec006e0300009e
:020000040000fa
:0401f0006e0300009a
:020000040000fa
:0401f4006e03000096
:020000040000fa
:0401f8006e03000092
:020000040000fa
:0401fc006e0300008e
:020000040000fa
:040200006e03000089
:020000040000fa
:040204006e03000085
:020000040000fa
:040208006e03000081
:020000040000fa
:04020c006e0300007d
:020000040000fa
:040210006e03000079
:020000040000fa
:040214006e03000075
:020000040000fa
:040218006e03000071
:020000040000fa
:04021c006e0300006d
:020000040000fa
:040220006e03000069
:020000040000fa
:040224006e03000065
:020000040000fa
:040228006e03000061
:020000040000fa
:04022c006e0300005d
:020000040000fa
:040230006e03000059
:020000040000fa
:040234006e03000055
:020000040000fa
:040238006e03000051
:020000040000fa
:04023c006e0300004d
:020000040000fa
:040240006e03000049
:020000040000fa
:040244006e03000045
:020000040000fa
:040248006e03000041
:020000040000fa
:04024c006e0300003d
:020000040000fa
:040250006e03000039
:020000040000fa
:040254006e03000035
:020000040000fa
:040258006e03000031
:020000040000fa
:04025c006e0300002d
:020000040000fa
:040260006e03000029
:020000040000fa
:040264006e03000025
:020000040000fa
:100400000f0021000eff27000e01880000000000f1
:10041000000020000000e000020032000001200087
:100420002002880014000700ae0007000000e00072
:1004300003003a0000002000010020000200370005
:100440000000200001002000810f70000100320038
:100450000f000700000020000000e0000200320052
:100460000000020000000000320602000000000050
:100470000040da000000fe00200020000000e00044
:1004800002003200100020009001880000000600e9
:10049000a1028800800478000000eb001f003700f4
:1004a000e284440054a0b4009905ba00e2844400f8
:1004b00054a0b4009906ba00e284440054a0b400e9
:1004c0000006eb00476fde00fd07b200ae018800ba
:1004d000636ce10003003a000ad801000000eb0061
:1004e0000e003700606ce10008003a00004deb00a0
:1004f0000a05e800020039003420ec000af0a000f0
:100500008b05e900f9ff3e00040037006168e10057
:10051000010032000086eb000b00070019c7ba008b
:100520000e04e0001905ba0003003a000a00e000da
:10053000dbff3a0000000600fe07b200ae028800b2
:100540008a047800f5ff37000cd0a300e20f4d00bd
:100550001c003b0089027800354dba000a05e8000e
:10056000020039003420ec000af0a0008b05e900fd
:100570000f003200254dba000a05e80002003900dc
:100580003420ec000af0a0008b05e90008003200de
:100590000c00e0000600320015cdba000a05e800a4
:1005a000020039003420ec000af0a0008b05e900bd
:1005b0008984e80054a0b4000b00e000e2ff3a0098
:1005c000000006009902ba00055d78008b05e9007d
:1005d000f7ff3200c82ade00055d78008b05e900d0
:1005e000f3ff32000c00e000f1ff320019ddba0029
:1005f000eeff3700809fbe003200f8003400f800a4
:1006000010002000a00188001000200000d0fe0093
:100610000000fa000108a9002173800000202000da
:100620000080600000f0a7000000ea000000e90080
:100630004f00de00004078000080fb006100600099
:100640004900dd00217380000190a10001007000cd
:10065000207388000080fa003400f9003200f900ad
:100660004f00be0000400600809fbe003200f80030
:100670003400f80010002000a001880010002000c5
:1006800000d0fe000000fa000288a900217380005b
:10069000002020000080600000f0a7000000ea00b9
:1006a0000000e9004f00de00004078000080fb0001
:1006b000610060004900dd00217380000190a1000d
:1006c00001007000207388000080fa003400f900f7
:1006d0003200f9004f00be00004006000040da0082
:1006e0000000fe0000000500839f68000100e0009c
:1006f00002003d0060001000e08018000300e000f0
:1007000002003d0060011100e081190005000700b2
:100710004f00e00002003b0060001000e080180085
:10072000000006006022b800060220000000d00091
:100730008180d2000482d2008582d2000000a00015
:100740000202520083825a0003003100020242007a
:1007500083824a000000a1000603e900f3ff3a008b
:04076000000006008f
:020000040000fa
:100764000e00fa00889fbe008a9fbe008c9fbe00c8
:1007740050079800610798000080eb00000f780094
:1007840000202a00a1442000300798004107980067
:100794003e009000ce009000823e20000300200026
:1007a400d0ff070010079800210798006e00900002
:1007b400cf80de002e0190008091b9009e01900050
:1007c400819ab90084017800030141009e019000e0
:1007d4000018b80001014100820078001007980059
:1007e4002107980010079800210798001e01900027
:1007f400ae019000f0ff2f0001002000800f510097
:10080400818f590003003c000000eb00000f7800ca
:100814003d0037001e019000ae019000f0ff2f0054
:1008240071002000800f5100818f590010003c009e
:1008340010002000000f78001e009000ae00900011
:10084400e00f5000e08f580002003d0067004000b8
:10085400e08048004d09dd004306de000c0671000f
:10086400c38ede001c0798002d0798002600370071
:100874001e019000ae019000f0ff2f00f103200054
:10088400800f5100818f590010003c00200020008f
:10089400000f78001e009000ae009000e00f5000a2
:1008a400e08f580002003d00f003b0000180b0006a
:1008b4004a0add004605de000a057200c68dde0028
:1008c4001a0798002b0798000f003700300020000b
:1008d400000f78001e009000ae009000e00f500062
:1008e400e08f580002003d00f00fb0000180b0001e
:1008f4004809dd004804de0008047100c88cde00ed
:1009040018079800290798005e009000e10f500036
:1009140027003a000421a90004c1a90005e1a900a7
:100924000021ef000068a9001e0078000000e0002c
:1009340005003a0021088000f0fc2f0000806000d0
:1009440020088800160037001e007800e10f5000d0
:1009540006003a0021088000f0fc2f0000806000af
:100964000040a000200888000d0037001e00780019
:10097400e20f500006003a0021088000f0fc2f002e
:10098400008060000050a0002008880004003700a8
:100994002108800000032000010070002008880066
:1009a4001e0090001008880005e1a8002a00370006
:1009b4005e009000e20f500027003a001021a900c9
:1009c40010c1a90011e1a9000621ef0000e8a90067
:1009d4001e0078000000e00005003a008108800055
:1009e400f0fc2f00008060008008880016003700ab
:1009f4001e007800e10f500006003a0081088000d4
:100a0400f0fc2f00008060000040a00080088800f7
:100a14000d0037001e007800e20f500006003a0077
:100a240081088000f0fc2f00008060000050a000ce
:100a3400800888000400370081088000000320003b
:100a440001007000800888001e0090006008880083
:100a540011e1a800000000004f06be004f05be00d3
:100a64004f04be000080fa00000006000400fa00f3
:100a7400000f7800110798009e0090001e00780077
:100a840037ff07001e007800e10f500009003a000c
:100a94000100370000000000004080006800600092
:100aa4000000e000fbff320005e1a9000068a90096
:100ab4000d0037001e007800e20f50000a003a00d3
:100ac4000100370000000000014080000008200001
:100ad400008060000000e000faff320011e1a9008c
:100ae40000e8a900000000000080fa0000000600f1
:100af4000a00fa00300798004107980040062000d9
:100b040010079800ce0090001e00900000017800ad
:100b1400110009008200d800000f7800ce00900078
:100b24001e00900000017800110009008200d80026
:100b34008000fd00200798001e0078000000e000ff
:100b440004003a002e0090000000e00006003a0085
:100b5400080037009e0090003e009000c3ff07008d
:100b64001e0fe900f4ff3700ae0090003e00900035
:100b7400beff07000080fa00000006000a00fa0029
:100b84004007980000202a00a1442000008fbe00e6
:100b94001e0078009e009000823e2000030020008a
:100ba400dffe070020079800310798004e009000f0
:100bb400cf80de003e0190008091b900ae0190002c
:100bc400819ab9008401780003014100ae019000cc
:100bd4000018b80001014100820078002007980045
:100be40031079800200798003107980011e1a90007
:100bf40013e1a9001061a8001021a90010c1a900e7
:100c040081088000f0fc2f000080600080088800cc
:100c14000621ef000a21ef0000e8a9000108a9005d
:100c24002108a8002142800080ff2f00008060007e
:100c34000000a000204288002e0090006008880078
:100c44002e009000be0090004008de0000007800f6
:100c54007008880011e1a8000080fa000000060076
:100c64000000fa006e2eef0070738000707288002e
:100c740070728000f0718800f071800070718800db
:100c840070718000f0708800f070800070708800cf
:100c9400000ea900612ea900040ea900652ea9006a
:100ca400c3e8a800a00f2000b4ff0700411f2000e4
:100cb400100020008eff070020708000610060009b
:100cc40000f0a7000000ea000000e9004f00de0089
:100cd400004078000080fb0061006000217080000b
:100ce4000100a1000100700020708800efff3700b0
:00000001FF
