:020000040000fa
:080000000002040000000000f2
:020000040000fa
:04000800660300008b
:020000040000fa
:04000c006603000087
:020000040000fa
:040010006603000083
:020000040000fa
:04001400660300007f
:020000040000fa
:04001800660300007b
:020000040000fa
:04001c006603000077
:020000040000fa
:040020006603000073
:020000040000fa
:04002400660300006f
:020000040000fa
:04002800660300006b
:020000040000fa
:04002c006603000067
:020000040000fa
:040030006603000063
:020000040000fa
:04003400660300005f
:020000040000fa
:04003800660300005b
:020000040000fa
:04003c006603000057
:020000040000fa
:040040006603000053
:020000040000fa
:04004400660300004f
:020000040000fa
:040048003803000079
:020000040000fa
:04004c006603000047
:020000040000fa
:040050006603000043
:020000040000fa
:04005400660300003f
:020000040000fa
:04005800660300003b
:020000040000fa
:04005c006603000037
:020000040000fa
:040060006603000033
:020000040000fa
:04006400660300002f
:020000040000fa
:04006800660300002b
:020000040000fa
:04006c006603000027
:020000040000fa
:040070006603000023
:020000040000fa
:04007400660300001f
:020000040000fa
:04007800fa02000088
:020000040000fa
:04007c006603000017
:020000040000fa
:040080006603000013
:020000040000fa
:04008400660300000f
:020000040000fa
:04008800660300000b
:020000040000fa
:04008c006603000007
:020000040000fa
:040090006603000003
:020000040000fa
:0400940066030000ff
:020000040000fa
:0400980066030000fb
:020000040000fa
:04009c0066030000f7
:020000040000fa
:0400a00066030000f3
:020000040000fa
:0400a40066030000ef
:020000040000fa
:0400a80066030000eb
:020000040000fa
:0400ac0066030000e7
:020000040000fa
:0400b00066030000e3
:020000040000fa
:0400b40066030000df
:020000040000fa
:0400b80066030000db
:020000040000fa
:0400bc0066030000d7
:020000040000fa
:0400c00066030000d3
:020000040000fa
:0400c40066030000cf
:020000040000fa
:0400c80066030000cb
:020000040000fa
:0400cc0066030000c7
:020000040000fa
:0400d00066030000c3
:020000040000fa
:0400d40066030000bf
:020000040000fa
:0400d80066030000bb
:020000040000fa
:0400dc0066030000b7
:020000040000fa
:0400e00066030000b3
:020000040000fa
:0400e40066030000af
:020000040000fa
:0400e80066030000ab
:020000040000fa
:0400ec0066030000a7
:020000040000fa
:0400f00066030000a3
:020000040000fa
:0400f400660300009f
:020000040000fa
:0400f800660300009b
:020000040000fa
:0400fc006603000097
:020000040000fa
:040100006603000092
:020000040000fa
:04010400660300008e
:020000040000fa
:04010800660300008a
:020000040000fa
:04010c006603000086
:020000040000fa
:040110006603000082
:020000040000fa
:04011400660300007e
:020000040000fa
:04011800660300007a
:020000040000fa
:04011c006603000076
:020000040000fa
:040120006603000072
:020000040000fa
:04012400660300006e
:020000040000fa
:04012800660300006a
:020000040000fa
:04012c006603000066
:020000040000fa
:040130006603000062
:020000040000fa
:04013400660300005e
:020000040000fa
:04013800660300005a
:020000040000fa
:04013c006603000056
:020000040000fa
:040140006603000052
:020000040000fa
:04014400660300004e
:020000040000fa
:04014800660300004a
:020000040000fa
:04014c006603000046
:020000040000fa
:040150006603000042
:020000040000fa
:04015400660300003e
:020000040000fa
:04015800660300003a
:020000040000fa
:04015c006603000036
:020000040000fa
:040160006603000032
:020000040000fa
:04016400660300002e
:020000040000fa
:04016800660300002a
:020000040000fa
:04016c006603000026
:020000040000fa
:040170006603000022
:020000040000fa
:04017400660300001e
:020000040000fa
:04017800660300001a
:020000040000fa
:04017c006603000016
:020000040000fa
:040180006603000012
:020000040000fa
:04018400660300000e
:020000040000fa
:04018800660300000a
:020000040000fa
:04018c006603000006
:020000040000fa
:040190006603000002
:020000040000fa
:0401940066030000fe
:020000040000fa
:0401980066030000fa
:020000040000fa
:04019c0066030000f6
:020000040000fa
:0401a00066030000f2
:020000040000fa
:0401a40066030000ee
:020000040000fa
:0401a80066030000ea
:020000040000fa
:0401ac0066030000e6
:020000040000fa
:0401b00066030000e2
:020000040000fa
:0401b40066030000de
:020000040000fa
:0401b80066030000da
:020000040000fa
:0401bc0066030000d6
:020000040000fa
:0401c00066030000d2
:020000040000fa
:0401c40066030000ce
:020000040000fa
:0401c80066030000ca
:020000040000fa
:0401cc0066030000c6
:020000040000fa
:0401d00066030000c2
:020000040000fa
:0401d40066030000be
:020000040000fa
:0401d80066030000ba
:020000040000fa
:0401dc0066030000b6
:020000040000fa
:0401e00066030000b2
:020000040000fa
:0401e40066030000ae
:020000040000fa
:0401e80066030000aa
:020000040000fa
:0401ec0066030000a6
:020000040000fa
:0401f00066030000a2
:020000040000fa
:0401f400660300009e
:020000040000fa
:0401f800660300009a
:020000040000fa
:0401fc006603000096
:020000040000fa
:040200006603000091
:020000040000fa
:04020400660300008d
:020000040000fa
:040208006603000089
:020000040000fa
:04020c006603000085
:020000040000fa
:040210006603000081
:020000040000fa
:04021400660300007d
:020000040000fa
:040218006603000079
:020000040000fa
:04021c006603000075
:020000040000fa
:040220006603000071
:020000040000fa
:04022400660300006d
:020000040000fa
:040228006603000069
:020000040000fa
:04022c006603000065
:020000040000fa
:040230006603000061
:020000040000fa
:04023400660300005d
:020000040000fa
:040238006603000059
:020000040000fa
:04023c006603000055
:020000040000fa
:040240006603000051
:020000040000fa
:04024400660300004d
:020000040000fa
:040248006603000049
:020000040000fa
:04024c006603000045
:020000040000fa
:040250006603000041
:020000040000fa
:04025400660300003d
:020000040000fa
:040258006603000039
:020000040000fa
:04025c006603000035
:020000040000fa
:040260006603000031
:020000040000fa
:04026400660300002d
:020000040000fa
:100400002f0021000eff27000e01880000000000d1
:10041000000020000000e000020032000001200087
:100420002002880014000700aa0007000000e00076
:1004300003003a00a06620000100200002003700ff
:100440000000200001002000810f70000100320038
:100450000f000700000020000000e0000200320052
:100460000000020000000000420502000000000041
:100470000040da000000fe00200020000000e00044
:1004800002003200100020009001880000000600e9
:10049000a1028800800478000000eb001f003700f4
:1004a000e284440054a0b4009905ba00e2844400f8
:1004b00054a0b4009906ba00e284440054a0b400e9
:1004c0000006eb00476fde00fd07b200ae018800ba
:1004d000636ce10003003a000ad801000000eb0061
:1004e0000e003700606ce10008003a00004deb00a0
:1004f0000a05e800020039003420ec000af0a000f0
:100500008b05e900f9ff3e00040037006168e10057
:10051000010032000086eb000b00070019c7ba008b
:100520000e04e0001905ba0003003a000a00e000da
:10053000dbff3a0000000600fe07b200ae028800b2
:100540008a047800f5ff37000cd0a300e20f4d00bd
:100550001c003b0089027800354dba000a05e8000e
:10056000020039003420ec000af0a0008b05e900fd
:100570000f003200254dba000a05e80002003900dc
:100580003420ec000af0a0008b05e90008003200de
:100590000c00e0000600320015cdba000a05e800a4
:1005a000020039003420ec000af0a0008b05e900bd
:1005b0008984e80054a0b4000b00e000e2ff3a0098
:1005c000000006009902ba00055d78008b05e9007d
:1005d000f7ff3200c82ade00055d78008b05e900d0
:1005e000f3ff32000c00e000f1ff320019ddba0029
:1005f000eeff37003600f800809fbe00829fbe00ed
:10060000849fbe00869fbe003200f8003400f800d0
:1006100010002000a00188001000200000d0fe0083
:100620000000fa000288a9002142800080ff2f000c
:10063000008060000000a000204288002108a8007f
:10064000a100200030002000750007000080fa00a3
:100650003400f9003200f9004f03be004f02be0023
:100660004f01be004f00be003600f90000400600fa
:10067000809fbe003200f8003400f8001000200017
:10068000a00188001000200000d0fe000000fa0049
:1006900013e1a9000108a9002108a9001172800036
:1006a00000102000008060000000e00002003a001e
:1006b00010002000008088000080fa003400f9005b
:1006c0003200f9004f00be00004006000040da0092
:1006d0000000fe0000000500839f68000100e000ac
:1006e00002003d0060001000e08018000300e00000
:1006f00002003d0060011100e081190005000700c3
:100700004f00e00002003b0060001000e080180095
:10071000000006006022b800060220000000d000a1
:100720008180d2000482d2008582d2000000a00025
:100730000202520083825a0003003100020242008a
:1007400083824a000000a1000603e900f3ff3a009b
:04075000000006009f
:020000040000fa
:100754000800fa00000f780011079800220798009b
:10076400330798001e007800e10f500005003a009e
:1007740000e120003048880000c2210020488800a1
:10078400030037000629ef0000c22100204888003a
:100794001e009000e10f500005003a0000e1200027
:1007a4008048880000c22100704888000300370098
:1007b4001029ef0000c22100704888002e0090002c
:1007c400e10f500005003a0000e12000d048880005
:1007d40000c22100c0488800030037001a29ef0036
:1007e40000c22100c04888003e009000e10f500084
:1007f40005003a0000e120002049880000c22100e1
:1008040010498800030037002429ef0000c22100aa
:10081400104988000080fa00000006000e00fa006b
:10082400889fbe008a9fbe008c9fbe005007980020
:10083400610798000080eb00000f780000202a0078
:10084400a144200030079800410798003e00900022
:10085400ce009000823e2000030020009dff070090
:1008640010079800210798006e009000cf80de00ea
:100874002e0190008091b9009e019000819ab900e8
:1008840084017800030141009e0190000018b80023
:1008940001014100820078001007980021079800a8
:1008a40010079800210798001e019000ae019000e7
:1008b400f0ff2f0001002000800f5100818f5900ac
:1008c40003003c000000eb00000f78003d003700ff
:1008d4001e019000ae019000f0ff2f007100200077
:1008e400800f5100818f590010003c00100020003f
:1008f400000f78001e009000ae009000e00f500042
:10090400e08f580002003d0067004000e08048008e
:100914004d09dd004306de000c067100c38ede00c7
:100924001c0798002d079800260037001e01900030
:10093400ae019000f0ff2f00f1032000800f510062
:10094400818f590010003c0020002000000f780027
:100954001e009000ae009000e00f5000e08f5800a1
:1009640002003d00f003b0000180b0004a0add003f
:100974004605de000a057200c68dde001a079800df
:100984002b0798000f00370030002000000f78007c
:100994001e009000ae009000e00f5000e08f580061
:1009a40002003d00f00fb0000180b0004809dd00f6
:1009b4004804de0008047100c88cde0018079800a3
:1009c400290798005e009000e30f500027003a00ca
:1009d4001221a90012c1a90013e1a9000a21ef0004
:1009e4000108a9001e0078000000e00005003a009c
:1009f40091088000f0fc2f000080600090088800bf
:100a0400160037001e007800e10f500006003a007f
:100a140091088000f0fc2f00008060000040a000de
:100a2400900888000d0037001e007800e20f500087
:100a340006003a0091088000f0fc2f00008060005e
:100a44000050a0009008880004003700910880003e
:100a54000003200001007000900888001e00900030
:100a64007008880013e1a800000000004f06be00d3
:100a74004f05be004f04be000080fa0000000600cf
:100a84000200fa006e2eef0070738000707288000e
:100a940070728000f0718800f071800070718800bd
:100aa40070718000f0708800f070800070708800b1
:100ab40001348000f00f2c000080600000c0a00012
:100ac400003488001134800000fc2f000080600096
:100ad4001001b3001034880011348000f00f2c0092
:100ae4008080600000202100010070001034880024
:100af4002134800000fc2f00008060003001b3002e
:100b040020348800302ea900304ea900306ea90090
:100b1400308ea9000629ef0000c221002048880079
:100b24000148800000c021000100700000488800d6
:100b340010488000f001b30010488800014880008c
:100b440080ff2f00008060006000b3000048880030
:100b54001029ef0000c2210070488800514880002d
:100b640000c02100010070005048880060488000e7
:100b7400f001b300604888005148800080ff2f00d6
:100b8400008060006000b300504888001a29ef001c
:100b940000c22100c0488800a148800000c0210094
:100ba40001007000a0488800b0488000f001b30044
:100bb400b0488800a148800080ff2f0000806000ba
:100bc4006000b300a04888002429ef0000c221007f
:100bd40010498800f148800000c021000100700025
:100be400f048880000498000f001b3000049880003
:100bf400f148800080ff2f00008060006000b30097
:100c0400f0488800c3e8a800410ea8000135800020
:100c1400f00f280080806000008025000100700033
:100c2400003588000288a9005142800080ff2f000f
:100c3400008060000000a00050428800c228a80084
:100c44002288a80013e1a9000108a9002108a9002d
:100c54000000eb00000f78008001eb000001eb00c6
:100c64008000eb000000eb00b9fe07000100370034
:100c74000000000000808000e10f5000fcff3a00fb
:100c84000030ef001e0078000000e00008003a0089
:100c9400130020000001eb00110020000000eb0015
:100ca400abfe070010002000000f7800f1ff3700b2
:100cb4008001eb000001eb008000eb000000eb0082
:100cc400a3fe07000000eb00000f7800e9ff3700e7
:020000040000fa
:100cd400001000000200000080000000000000007e
:00000001FF
