:020000040000fa
:080000000002040000000000f2
:020000040000fa
:040008009003000061
:020000040000fa
:04000c00900300005d
:020000040000fa
:040010009003000059
:020000040000fa
:040014009003000055
:020000040000fa
:040018009003000051
:020000040000fa
:04001c00900300004d
:020000040000fa
:040020009003000049
:020000040000fa
:040024009003000045
:020000040000fa
:040028009003000041
:020000040000fa
:04002c00900300003d
:020000040000fa
:040030009003000039
:020000040000fa
:040034009003000035
:020000040000fa
:040038009003000031
:020000040000fa
:04003c00900300002d
:020000040000fa
:040040009003000029
:020000040000fa
:040044009003000025
:020000040000fa
:040048009003000021
:020000040000fa
:04004c00900300001d
:020000040000fa
:040050009003000019
:020000040000fa
:04005400fa020000ac
:020000040000fa
:040058003a03000067
:020000040000fa
:04005c00900300000d
:020000040000fa
:040060009003000009
:020000040000fa
:040064009003000005
:020000040000fa
:040068009003000001
:020000040000fa
:04006c0090030000fd
:020000040000fa
:0400700090030000f9
:020000040000fa
:0400740090030000f5
:020000040000fa
:0400780090030000f1
:020000040000fa
:04007c0090030000ed
:020000040000fa
:0400800090030000e9
:020000040000fa
:0400840090030000e5
:020000040000fa
:0400880090030000e1
:020000040000fa
:04008c0090030000dd
:020000040000fa
:0400900090030000d9
:020000040000fa
:0400940090030000d5
:020000040000fa
:0400980090030000d1
:020000040000fa
:04009c0090030000cd
:020000040000fa
:0400a00090030000c9
:020000040000fa
:0400a40090030000c5
:020000040000fa
:0400a80090030000c1
:020000040000fa
:0400ac0090030000bd
:020000040000fa
:0400b00090030000b9
:020000040000fa
:0400b40090030000b5
:020000040000fa
:0400b80090030000b1
:020000040000fa
:0400bc0090030000ad
:020000040000fa
:0400c00090030000a9
:020000040000fa
:0400c40090030000a5
:020000040000fa
:0400c80090030000a1
:020000040000fa
:0400cc00900300009d
:020000040000fa
:0400d0009003000099
:020000040000fa
:0400d4009003000095
:020000040000fa
:0400d8009003000091
:020000040000fa
:0400dc00900300008d
:020000040000fa
:0400e0009003000089
:020000040000fa
:0400e4009003000085
:020000040000fa
:0400e8009003000081
:020000040000fa
:0400ec00900300007d
:020000040000fa
:0400f0009003000079
:020000040000fa
:0400f4009003000075
:020000040000fa
:0400f8009003000071
:020000040000fa
:0400fc00900300006d
:020000040000fa
:040100009003000068
:020000040000fa
:040104009003000064
:020000040000fa
:040108009003000060
:020000040000fa
:04010c00900300005c
:020000040000fa
:040110009003000058
:020000040000fa
:040114009003000054
:020000040000fa
:040118009003000050
:020000040000fa
:04011c00900300004c
:020000040000fa
:040120009003000048
:020000040000fa
:040124009003000044
:020000040000fa
:040128009003000040
:020000040000fa
:04012c00900300003c
:020000040000fa
:040130009003000038
:020000040000fa
:040134009003000034
:020000040000fa
:040138009003000030
:020000040000fa
:04013c00900300002c
:020000040000fa
:040140009003000028
:020000040000fa
:040144009003000024
:020000040000fa
:040148009003000020
:020000040000fa
:04014c00900300001c
:020000040000fa
:040150009003000018
:020000040000fa
:040154009003000014
:020000040000fa
:040158009003000010
:020000040000fa
:04015c00900300000c
:020000040000fa
:040160009003000008
:020000040000fa
:040164009003000004
:020000040000fa
:040168009003000000
:020000040000fa
:04016c0090030000fc
:020000040000fa
:0401700090030000f8
:020000040000fa
:0401740090030000f4
:020000040000fa
:0401780090030000f0
:020000040000fa
:04017c0090030000ec
:020000040000fa
:0401800090030000e8
:020000040000fa
:0401840090030000e4
:020000040000fa
:0401880090030000e0
:020000040000fa
:04018c0090030000dc
:020000040000fa
:0401900090030000d8
:020000040000fa
:0401940090030000d4
:020000040000fa
:0401980090030000d0
:020000040000fa
:04019c0090030000cc
:020000040000fa
:0401a00090030000c8
:020000040000fa
:0401a40090030000c4
:020000040000fa
:0401a80090030000c0
:020000040000fa
:0401ac0090030000bc
:020000040000fa
:0401b00090030000b8
:020000040000fa
:0401b40090030000b4
:020000040000fa
:0401b80090030000b0
:020000040000fa
:0401bc0090030000ac
:020000040000fa
:0401c00090030000a8
:020000040000fa
:0401c40090030000a4
:020000040000fa
:0401c80090030000a0
:020000040000fa
:0401cc00900300009c
:020000040000fa
:0401d0009003000098
:020000040000fa
:0401d4009003000094
:020000040000fa
:0401d8009003000090
:020000040000fa
:0401dc00900300008c
:020000040000fa
:0401e0009003000088
:020000040000fa
:0401e4009003000084
:020000040000fa
:0401e8009003000080
:020000040000fa
:0401ec00900300007c
:020000040000fa
:0401f0009003000078
:020000040000fa
:0401f4009003000074
:020000040000fa
:0401f8009003000070
:020000040000fa
:0401fc00900300006c
:020000040000fa
:040200009003000067
:020000040000fa
:040204009003000063
:020000040000fa
:04020800900300005f
:020000040000fa
:04020c00900300005b
:020000040000fa
:040210009003000057
:020000040000fa
:040214009003000053
:020000040000fa
:04021800900300004f
:020000040000fa
:04021c00900300004b
:020000040000fa
:040220009003000047
:020000040000fa
:040224009003000043
:020000040000fa
:04022800900300003f
:020000040000fa
:04022c00900300003b
:020000040000fa
:040230009003000037
:020000040000fa
:040234009003000033
:020000040000fa
:04023800900300002f
:020000040000fa
:04023c00900300002b
:020000040000fa
:040240009003000027
:020000040000fa
:040244009003000023
:020000040000fa
:04024800900300001f
:020000040000fa
:04024c00900300001b
:020000040000fa
:040250009003000017
:020000040000fa
:040254009003000013
:020000040000fa
:04025800900300000f
:020000040000fa
:04025c00900300000b
:020000040000fa
:040260009003000007
:020000040000fa
:040264009003000003
:020000040000fa
:100400008f1021000eff27000e0188000000000061
:10041000000020000000e000020032000001200087
:100420002002880014000700bf0007000000e00061
:1004300003003a00c09820000100200002003700ad
:100440000000200001002000810f70000100320038
:100450000f000700000020000000e0000200320052
:10046000000002000000000042070200000000003f
:100470000040da000000fe00200020000000e00044
:1004800002003200100020009001880000000600e9
:10049000a1028800800478000000eb001f003700f4
:1004a000e284440054a0b4009905ba00e2844400f8
:1004b00054a0b4009906ba00e284440054a0b400e9
:1004c0000006eb00476fde00fd07b200ae018800ba
:1004d000636ce10003003a000ad801000000eb0061
:1004e0000e003700606ce10008003a00004deb00a0
:1004f0000a05e800020039003420ec000af0a000f0
:100500008b05e900f9ff3e00040037006168e10057
:10051000010032000086eb000b00070019c7ba008b
:100520000e04e0001905ba0003003a000a00e000da
:10053000dbff3a0000000600fe07b200ae028800b2
:100540008a047800f5ff37000cd0a300e20f4d00bd
:100550001c003b0089027800354dba000a05e8000e
:10056000020039003420ec000af0a0008b05e900fd
:100570000f003200254dba000a05e80002003900dc
:100580003420ec000af0a0008b05e90008003200de
:100590000c00e0000600320015cdba000a05e800a4
:1005a000020039003420ec000af0a0008b05e900bd
:1005b0008984e80054a0b4000b00e000e2ff3a0098
:1005c000000006009902ba00055d78008b05e9007d
:1005d000f7ff3200c82ade00055d78008b05e900d0
:1005e000f3ff32000c00e000f1ff320019ddba0029
:1005f000eeff37003600f800809fbe00829fbe00ed
:10060000849fbe00869fbe003200f8003400f800d0
:1006100010002000a00188001000200000d0fe0083
:100620000000fa000168a9000500370030118000c1
:100630000040780080407800000021006e01070033
:1006400010118000610060000000e000f7ff3a0038
:100650000080fa003400f9003200f9004f03be00b8
:100660004f02be004f01be004f00be003600f90031
:10067000004006003600f800809fbe00829fbe004a
:10068000849fbe00869fbe003200f8003400f80050
:1006900010002000a00188001000200000d0fe0003
:1006a0000200fa000188a900060037008e007800d9
:1006b00040082100710107001e4078000000fb0087
:1006c00020118800111180000020200000806000af
:1006d0000000e00004003a00400821003901070052
:1006e0000000e000f1ff3200400821003501070062
:1006f0000000e000010032002188a9000080fa001b
:100700003400f9003200f9004f03be004f02be0072
:100710004f01be004f00be003600f9000040060049
:100720000040da000000fe0000000500839f680022
:100730000100e00002003d0060001000e0801800b1
:100740000300e00002003d0060011100e08119009b
:10075000050007004f00e00002003b0060001000b1
:10076000e0801800000006006022b80006022000a9
:100770000000d0008180d2000482d2008582d200a5
:100780000000a0000202520083825a0003003100e0
:100790000202420083824a000000a1000603e90031
:0807a000f3ff3a00000006001f
:020000040000fa
:1007a8000000fa007100200020002000c3000700ac
:1007b8000080fa00000006000e00fa00889fbe00c4
:1007c8008a9fbe008c9fbe00500798006107980062
:1007d8000080eb00000f780000202a00a1442000d0
:1007e80030079800410798003e009000ce00900026
:1007f800823e200003002000caff0700100798006f
:10080800210798006e009000cf80de002e01900036
:100818008091b9009e019000819ab9008401780006
:10082800030141009e0190000018b8000101410039
:100838008200780010079800210798001007980098
:10084800210798001e019000ae019000f0ff2f00d4
:1008580001002000800f5100818f590003003c00e7
:100868000000eb00000f78003d0037001e019000eb
:10087800ae019000f0ff2f0071002000800f5100a2
:10088800818f590010003c0010002000000f7800f4
:100898001e009000ae009000e00f5000e08f58005e
:1008a80002003d0067004000e08048004d09dd007f
:1008b8004306de000c067100c38ede001c0798009c
:1008c8002d079800260037001e019000ae01900009
:1008d800f0ff2f00f1032000800f5100818f590095
:1008e80010003c0020002000000f78001e0090003f
:1008f800ae009000e00f5000e08f580002003d006d
:10090800f003b0000180b0004a0add004605de00b1
:100918000a057200c68dde001a0798002b0798009a
:100928000f00370030002000000f78001e009000f4
:10093800ae009000e00f5000e08f580002003d002c
:10094800f00fb0000180b0004809dd004804de0067
:1009580008047100c88cde00180798002907980061
:100968005e009000e10f500026003a000421a90023
:1009780004c1a90005e1a9000021ef000068a90051
:100988001e0078000000e00005003a002108800001
:10099800f0fc2f0000806000200888001600370057
:1009a8001e007800e10f500006003a002108800080
:1009b800f0fc2f00008060000040a00020088800a4
:1009c8000d0037001e007800e20f500006003a00c4
:1009d80021088000f0fc2f00008060000050a0007b
:1009e8002008880004003700210880000003200048
:1009f80001007000200888001e0090001008880080
:100a080005e1a8005e009000e20f500026003a00c1
:100a18001021a90010c1a90011e1a9000621ef00c9
:100a280000e8a9001e0078000000e00005003a0078
:100a380081088000f0fc2f0000806000800888009a
:100a4800160037001e007800e10f500006003a003b
:100a580081088000f0fc2f00008060000040a000aa
:100a6800800888000d0037001e007800e20f500053
:100a780006003a0081088000f0fc2f00008060002a
:100a88000050a0008008880004003700810880001a
:100a98000003200001007000800888001e009000fc
:100aa8006008880011e1a8004f06be004f05be008f
:100ab8004f04be000080fa00000006000400fa009f
:100ac800000f7800110798009e0090001e00780023
:100ad80039ff07001e007800e10f500008003a00b7
:100ae8000000000000408000680060000000e00096
:100af800fcff320005e1a9000068a9000b003700df
:100b08001e007800e20f500008003a0000000000c4
:100b18000140800000082000008060000000e00024
:100b2800fbff320011e1a90000e8a9000080fa00eb
:100b3800000006000400fa00100798000000eb000f
:100b4800000f78001e009000e10f50000e003a00e0
:100b580000408000680060000000e00004003200ef
:100b680010002000000f780001003700000000008e
:100b780000408000680060000000e000fbff3200d9
:100b88000068a900000000001e0078000080fa003c
:100b9800000006000200fa00000f78001e0078002e
:100ba8008000eb00018098001e0078008000eb00b8
:100bb800118098000080fa00000006000200fa0088
:100bc800000f78001e007800808090001e007800da
:100bd800108090000080680000f0a7000000ea0084
:100be8000000e9004f00de000080fa000000060067
:100bf8000600fa0010079800414798001e00900070
:100c0800008090008000e800f00728000080600065
:100c18000000e00004003d000000e90001f82f009a
:100c2800008070000000e800000f78001e009000af
:100c3800108090009e0f500002003a000080eb00e8
:100c48000a0037001e009000008090009e0090006f
:100c580000804000ce409000014878001e009000bf
:100c68009e007800018098000000eb000080fa00e8
:100c7800000006000400fa00000f78001107980031
:100c88001e007800cdff07000000e00002003200df
:100c98000080eb00160037001e00780010809000de
:100ca8009e00780000804000904078001e00900070
:100cb800014878001e007800108090008000e8004d
:100cc800f0072800008060000000e00004003d00fc
:100cd8000000e90001f82f00008070000000e80023
:100ce800800078001e007800118098000000eb005a
:100cf8000080fa00000006000800fa00300798009b
:100d08000000eb00000f78000000eb0010079800cf
:100d1800146ea9003e0090000070a0002200070099
:100d28000000eb0020000700000f78000000eb0037
:100d38001d00070010079800146ea800000f20007f
:100d48001e0f60001e0090004800dd00100798008c
:100d58001e0090001e007000200798002e009000d2
:100d68000000e00001003d006f0040004480de000c
:100d7800200798002e0090000080fa00000006006e
:100d88000200fa00000f7800146ea900000120008c
:100d9800050007001e00780003000700146ea80075
:100da8000080fa00000006000200fa00000f780038
:100db8000000000000128000620060000000e000f7
:100dc800fcff3a009e0078004112880000000000f5
:100dd80000128000610060000000e000fcff3200ab
:100de80041128000010f78001e0078000080fa0090
:100df800000006008200fa00405224002125250048
:100e08001007980021079800c0122300a1022000b3
:100e18003007980041079800ea0047003b000900a6
:100e28008018eb000000eb00000f78000a00370084
:100e38001e80e8006e4078000004e0000b003200dd
:100e48001e80e8006e40780080407800400821004d
:100e580067ff07001e0fe800f00720009e007800db
:100e6800808f5000f2ff34000100370000000000be
:100e78002188a8000080fa00000006002001fa007e
:100e88006e2eef00707380007072880070728000a0
:100e9800f0718800f07180007071880070718000b6
:100ea800f0708800f070800070708800612ea900d2
:100eb800652ea900c3e8a800300ea900316ea8006d
:100ec8000134800000fc2f00008060000000a000ba
:100ed800003488002136800000f82f0080806000f0
:100ee800b00420000100700020368800401d20005a
:100ef800401188002002a9000111800090ff2f00f6
:100f0800008060000011880020a2a9002062a900ca
:100f18000168a90021428000f0ff280000806000dd
:100f280000c0a0002042880011118000f0f32f00bb
:100f380000806000101188002168a8000188a900bd
:100f48003142800080ff2f00008060000000a00078
:100f58003042880023a2a90023e2a90021e2a800c8
:100f68002342a800002ea800518ea90051aea90066
:100f7800106ea900108ea90030cea900413680005d
:100f880000f82f00008060001001b3004036880090
:100f9800b1348000f00f2c008080600000602000d9
:100fa80001007000b0348800c134800000fc2f00bc
:100fb800008060005000b300c03488000148a900d8
:100fc8002148a9004382a9004362a9004322a9003d
:100fd8004302a80042c2a90042a2a8001112800040
:100fe800c0ff2f00008060000010a00010128800d1
:100ff8001112800030fe2f00008060008001b300d5
:10100800101288004342a90041e2a800146ea8000b
:10101800148ea80034cea8000080eb00500798007a
:101028000000eb00600798000000eb0070079800d4
:101038000000eb00000f98000000eb00100798007c
:10104800d0c2b30040479800d0c2b30050479800c0
:10105800d0c2b30060479800d0c2b3007047980070
:10106800d0c2b300004f9800d0c2b300104f980010
:10107800d0c2b3002057980076004700c5fe07008d
:10108800a00920000e004000c2fe0700a1002000b9
:1010980010002000c8fd0700c1fd070067003700e9
:1010a800e11120008e80400076004700f1fe070025
:1010b8009e489000215798000e499000124f9800c2
:1010c800fe409000014f98006e41900072479800d2
:1010d800de409000614798004e41900052479800ca
:1010e800ee58920041479800ae50900040c2b300bd
:1010f80080cf500051003a009e48900020c4b300b1
:1011080080cf500020003a008e48900070c5b30090
:1011180080cf50001c003a00fe409000c0c2b300cf
:1011280080cf500018003a00ce409000a0c2b30013
:1011380080cf500014003a006e4090000000fb0081
:10114800ea00b90001e22f00808040005e40900074
:101158000000fb000003b10000804000200f980051
:101168002e089000e70f5000060034002e0890006b
:10117800ef0f500003003c002e08900000ff07000e
:10118800010037001bff07009e48900080c4b30091
:1011980080cf500029003a008e489000a0c5b300c7
:1011a80080cf500025003a00fe409000c0c2b30036
:1011b80080cf500021003a00ce409000a0c2b3007a
:1011c80080cf50001d003a006e4090000000fb00e8
:1011d800ea00b90001e22f00808040005e409000e4
:1011e8000000fb000003b10000804000200f9800c1
:1011f8002e0890000000e0000c0032002e0890003d
:10120800e10f5000090032002e089000e20f500054
:10121800060032002e089000e50f5000030032004f
:101228002e089000ea0f500003003a002e099000a3
:10123800020f780001003700eefe07007600470035
:101248005efe07000000e00095ff32009e0090005f
:101258002003200000017800110009008200d80056
:101268008000fd000000e0000f003a0021738000bc
:10127800002020000080600000f0a7000000ea00c5
:101288000000e9004f00de00004078000080fb000d
:10129800610060004900dd00217380000190a10019
:1012a80001007000207388001e009000610060003b
:1012b8000000e00009003a00200020008efe070030
:1012c80060079800400020008bfe07007007980018
:1012d8006000200088fe0700000f98009e00900024
:1012e800803e2000808f500002003a000000eb0092
:1012f800100798001e0090000000e80010079800f2
:10130800100020000bfe07005007980062ff37000e
:020000040000fa
:10131800001000000801000080000000000000002c
:00000001FF
