:020000040000fa
:080000000002040000000000f2
:020000040000fa
:040008003a030000b7
:020000040000fa
:04000c003a030000b3
:020000040000fa
:040010003a030000af
:020000040000fa
:040014003a030000ab
:020000040000fa
:040018003a030000a7
:020000040000fa
:04001c003a030000a3
:020000040000fa
:040020003a0300009f
:020000040000fa
:040024003a0300009b
:020000040000fa
:040028003a03000097
:020000040000fa
:04002c003a03000093
:020000040000fa
:040030003a0300008f
:020000040000fa
:040034003a0300008b
:020000040000fa
:040038003a03000087
:020000040000fa
:04003c003a03000083
:020000040000fa
:040040003a0300007f
:020000040000fa
:040044003a0300007b
:020000040000fa
:040048003a03000077
:020000040000fa
:04004c003a03000073
:020000040000fa
:040050003a0300006f
:020000040000fa
:04005400fa020000ac
:020000040000fa
:040058003a03000067
:020000040000fa
:04005c003a03000063
:020000040000fa
:040060003a0300005f
:020000040000fa
:040064003a0300005b
:020000040000fa
:040068003a03000057
:020000040000fa
:04006c003a03000053
:020000040000fa
:040070003a0300004f
:020000040000fa
:040074003a0300004b
:020000040000fa
:040078003a03000047
:020000040000fa
:04007c003a03000043
:020000040000fa
:040080003a0300003f
:020000040000fa
:040084003a0300003b
:020000040000fa
:040088003a03000037
:020000040000fa
:04008c003a03000033
:020000040000fa
:040090003a0300002f
:020000040000fa
:040094003a0300002b
:020000040000fa
:040098003a03000027
:020000040000fa
:04009c003a03000023
:020000040000fa
:0400a0003a0300001f
:020000040000fa
:0400a4003a0300001b
:020000040000fa
:0400a8003a03000017
:020000040000fa
:0400ac003a03000013
:020000040000fa
:0400b0003a0300000f
:020000040000fa
:0400b4003a0300000b
:020000040000fa
:0400b8003a03000007
:020000040000fa
:0400bc003a03000003
:020000040000fa
:0400c0003a030000ff
:020000040000fa
:0400c4003a030000fb
:020000040000fa
:0400c8003a030000f7
:020000040000fa
:0400cc003a030000f3
:020000040000fa
:0400d0003a030000ef
:020000040000fa
:0400d4003a030000eb
:020000040000fa
:0400d8003a030000e7
:020000040000fa
:0400dc003a030000e3
:020000040000fa
:0400e0003a030000df
:020000040000fa
:0400e4003a030000db
:020000040000fa
:0400e8003a030000d7
:020000040000fa
:0400ec003a030000d3
:020000040000fa
:0400f0003a030000cf
:020000040000fa
:0400f4003a030000cb
:020000040000fa
:0400f8003a030000c7
:020000040000fa
:0400fc003a030000c3
:020000040000fa
:040100003a030000be
:020000040000fa
:040104003a030000ba
:020000040000fa
:040108003a030000b6
:020000040000fa
:04010c003a030000b2
:020000040000fa
:040110003a030000ae
:020000040000fa
:040114003a030000aa
:020000040000fa
:040118003a030000a6
:020000040000fa
:04011c003a030000a2
:020000040000fa
:040120003a0300009e
:020000040000fa
:040124003a0300009a
:020000040000fa
:040128003a03000096
:020000040000fa
:04012c003a03000092
:020000040000fa
:040130003a0300008e
:020000040000fa
:040134003a0300008a
:020000040000fa
:040138003a03000086
:020000040000fa
:04013c003a03000082
:020000040000fa
:040140003a0300007e
:020000040000fa
:040144003a0300007a
:020000040000fa
:040148003a03000076
:020000040000fa
:04014c003a03000072
:020000040000fa
:040150003a0300006e
:020000040000fa
:040154003a0300006a
:020000040000fa
:040158003a03000066
:020000040000fa
:04015c003a03000062
:020000040000fa
:040160003a0300005e
:020000040000fa
:040164003a0300005a
:020000040000fa
:040168003a03000056
:020000040000fa
:04016c003a03000052
:020000040000fa
:040170003a0300004e
:020000040000fa
:040174003a0300004a
:020000040000fa
:040178003a03000046
:020000040000fa
:04017c003a03000042
:020000040000fa
:040180003a0300003e
:020000040000fa
:040184003a0300003a
:020000040000fa
:040188003a03000036
:020000040000fa
:04018c003a03000032
:020000040000fa
:040190003a0300002e
:020000040000fa
:040194003a0300002a
:020000040000fa
:040198003a03000026
:020000040000fa
:04019c003a03000022
:020000040000fa
:0401a0003a0300001e
:020000040000fa
:0401a4003a0300001a
:020000040000fa
:0401a8003a03000016
:020000040000fa
:0401ac003a03000012
:020000040000fa
:0401b0003a0300000e
:020000040000fa
:0401b4003a0300000a
:020000040000fa
:0401b8003a03000006
:020000040000fa
:0401bc003a03000002
:020000040000fa
:0401c0003a030000fe
:020000040000fa
:0401c4003a030000fa
:020000040000fa
:0401c8003a030000f6
:020000040000fa
:0401cc003a030000f2
:020000040000fa
:0401d0003a030000ee
:020000040000fa
:0401d4003a030000ea
:020000040000fa
:0401d8003a030000e6
:020000040000fa
:0401dc003a030000e2
:020000040000fa
:0401e0003a030000de
:020000040000fa
:0401e4003a030000da
:020000040000fa
:0401e8003a030000d6
:020000040000fa
:0401ec003a030000d2
:020000040000fa
:0401f0003a030000ce
:020000040000fa
:0401f4003a030000ca
:020000040000fa
:0401f8003a030000c6
:020000040000fa
:0401fc003a030000c2
:020000040000fa
:040200003a030000bd
:020000040000fa
:040204003a030000b9
:020000040000fa
:040208003a030000b5
:020000040000fa
:04020c003a030000b1
:020000040000fa
:040210003a030000ad
:020000040000fa
:040214003a030000a9
:020000040000fa
:040218003a030000a5
:020000040000fa
:04021c003a030000a1
:020000040000fa
:040220003a0300009d
:020000040000fa
:040224003a03000099
:020000040000fa
:040228003a03000095
:020000040000fa
:04022c003a03000091
:020000040000fa
:040230003a0300008d
:020000040000fa
:040234003a03000089
:020000040000fa
:040238003a03000085
:020000040000fa
:04023c003a03000081
:020000040000fa
:040240003a0300007d
:020000040000fa
:040244003a03000079
:020000040000fa
:040248003a03000075
:020000040000fa
:04024c003a03000071
:020000040000fa
:040250003a0300006d
:020000040000fa
:040254003a03000069
:020000040000fa
:040258003a03000065
:020000040000fa
:04025c003a03000061
:020000040000fa
:040260003a0300005d
:020000040000fa
:040264003a03000059
:020000040000fa
:100400000f0621000eff27000e01880000000000eb
:10041000000020000000e000020032000001200087
:100420002002880014000700940007000000e0008c
:1004300003003a00c0d8200001002000020037006d
:100440000000200001002000810f70000100320038
:100450000f000700000020000000e0000200320052
:1004600000000200000000004a0d02000000000031
:100470000040da000000fe00600020000000e00004
:1004800002003200002020009001880000000600d9
:10049000a1028800800478000000eb001f003700f4
:1004a000e284440054a0b4009905ba00e2844400f8
:1004b00054a0b4009906ba00e284440054a0b400e9
:1004c0000006eb00476fde00fd07b200ae018800ba
:1004d000636ce10003003a000ad801000000eb0061
:1004e0000e003700606ce10008003a00004deb00a0
:1004f0000a05e800020039003420ec000af0a000f0
:100500008b05e900f9ff3e00040037006168e10057
:10051000010032000086eb000b00070019c7ba008b
:100520000e04e0001905ba0003003a000a00e000da
:10053000dbff3a0000000600fe07b200ae028800b2
:100540008a047800f5ff37000cd0a300e20f4d00bd
:100550001c003b0089027800354dba000a05e8000e
:10056000020039003420ec000af0a0008b05e900fd
:100570000f003200254dba000a05e80002003900dc
:100580003420ec000af0a0008b05e90008003200de
:100590000c00e0000600320015cdba000a05e800a4
:1005a000020039003420ec000af0a0008b05e900bd
:1005b0008984e80054a0b4000b00e000e2ff3a0098
:1005c000000006009902ba00055d78008b05e9007d
:1005d000f7ff3200c82ade00055d78008b05e900d0
:1005e000f3ff32000c00e000f1ff320019ddba0029
:1005f000eeff37003600f800809fbe00829fbe00ed
:10060000849fbe00869fbe003200f8003400f800d0
:1006100010002000a00188000020200000d0fe0073
:100620000000fa000168a9000500370030118000c1
:100630000040780080407800000021000702070099
:1006400010118000610060000000e000f7ff3a0038
:100650000080fa003400f9003200f9004f03be00b8
:100660004f02be004f01be004f00be003600f90031
:10067000004006000040da000000fe000000050017
:10068000839f68000100e00002003d006000100050
:10069000e08018000300e00002003d00600111004e
:1006a000e0811900050007004f00e00002003b0058
:1006b00060001000e0801800000006006022b80012
:1006c000060220000000d0008180d2000482d20007
:1006d0008582d2000000a0000202520083825a00ec
:1006e000030031000202420083824a000000a100a0
:1006f0000603e900f3ff3a000000060081017800dc
:100700000002780030417800b14f510002003a00f9
:100710000204e000f9ff3a009480fb001380fb0024
:100720000080500000000600881f78000004780058
:100730000800780003000700080078004f047800e4
:1007400000000600881f7800810178000002780010
:10075000808268000508a3000200320021003700f3
:100760000201e90003007800040478000308a300f4
:10077000070032000200e00021003200b3407800a0
:10078000015a78000104e000f5ff3a00020037004a
:100790000200e0001a0032001004e00003003a00fa
:1007a00017003700031c78000281e9008000780000
:1007b000e10f510008003600b0017800f5ef2f007e
:1007c000838242000382ea00048262000508280056
:1007d00005026200f3ff32000800780001003700d4
:1007e0000201e900000478000200e0000400320089
:1007f000b1417800035878000304e000f8ff3a00a4
:100800008000eb0008007800030007000800780073
:100810004f04780000000600889fbe008a9fbe003b
:10082000800478000200e0005b00320001407800a4
:10083000814c780082814400f1f99f00e20f510061
:100840005500360091449800a1449800e1f99f00ba
:10085000d1f99f00e60f51004f003600b1449800d7
:10086000c1f99f00e80f51004b0036000905ea006e
:10087000630565000a8444000a055100c1ff2f008a
:10088000010565000080fb008000eb0012102000d5
:100890001310200044000700008cbe000a01440031
:1008a00060b99f0071b99f00e80f55003a0036000b
:1008b00020049800310498004004980051049800e6
:1008c00020b99f0031b99f0040b99f0051b99f00e6
:1008d000f80f55003000360060049800710498004d
:1008e000000c9800110c9800200c9800310c980016
:1008f000400c9800510c980020b19f0031b19f002e
:1009000040b19f0051b19f0060b19f0071b19f0045
:1009100000b99f0011b99f00640164007801410093
:1009200002044400020555006011b8000203be0035
:100930000002be000403be006022b8000000720086
:100940008180720002017300838173001000370000
:10095000009cbe000294be00400498005104980020
:100960006204980073049800000c9800110c980021
:10097000220c9800330c9800400c9800510c980001
:10098000620c9800730c98000a02b1000802b000d3
:10099000ff0f5500eeff3e00090078004f05be0036
:1009a0004f04be0000000600020ab900001bb90097
:1009b0000200b800810042008100430000000600f0
:020000040000fa
:0c09c000504300005245000046000000bb
:020000040000fa
:1009cc000000fa006e2eef007073800070728800c9
:1009dc0070728000f0718800f07180007071880076
:1009ec0070718000f0708800f0708000707088006a
:1009fc00000ea900040ea900110ea900150ea900e5
:100a0c00502ea900542ea900500ea900540ea90076
:100a1c00602ea900642ea90000eea90004eea90026
:100a2c00c3e8a800300ea900316ea8000134800084
:100a3c0000fc2f00008060000000a0000034880043
:100a4c002136800000f82f0080806000b004200068
:100a5c000100700020368800401d200040118800e5
:100a6c002002a9000111800090ff2f00008060007f
:100a7c000011880020a2a9002062a9000168a90029
:100a8c0021428000f0ff28000080600000c0a00020
:100a9c002042880011118000f0f32f0000806000cc
:100aac00101188002168a8000188a900314280003b
:100abc0080ff2f00008060000000a0003042880002
:100acc0023a2a90023e2a90021e2a8002342a80046
:100adc00002ea800518ea90051aea900106ea900dd
:100aec00108ea90030cea9004136800000f82f00ee
:100afc00008060001001b30040368800b1348000e3
:100b0c00f00f2c008080600000602000010070005d
:100b1c00b0348800c134800000fc2f0000806000dd
:100b2c005000b300c03488000148a9002148a90036
:100b3c004382a9004362a9004322a9004302a900f1
:100b4c0042c2a80042a2a80011128000c0ff2f00d0
:100b5c00008060000010a0001012880011128000ac
:100b6c0030fe2f00008060008001b300101288005e
:100b7c004342a90041e2a800146ea800148ea800fc
:100b8c0034cea80001348000f00f2c0000806000ef
:100b9c0000c0a000003488001134800000fc2f003d
:100bac00008060001001b300103488001134800004
:100bbc00f00f2c00808060000020210001007000ec
:100bcc00103488002134800000fc2f00008060006d
:100bdc003001b30020348800302ea900304ea9001b
:100bec00306ea900308ea9000148800080ff2f00d4
:100bfc0000806000004888000629ef0000c2210038
:100c0c00204888000148800000c0210001007000cd
:100c1c000048880010488000f001b300104888009c
:100c2c000148800080ff2f00008060006000b3004e
:100c3c00004888005148800080ff2f000080600031
:100c4c00504888001029ef0000c22100704888002d
:100c5c005148800000c021000100700050488800fd
:100c6c0060488000f001b300604888005148800063
:100c7c0080ff2f00008060006000b30050488800a7
:100c8c00a148800080ff2f0000806000a0488800f1
:100c9c001a29ef0000c22100c0488800a14880003a
:100cac0000c0210001007000a0488800b0488000fe
:100cbc00f001b300b0488800a148800080ff2f00ed
:100ccc00008060006000b300a0488800f1488000fc
:100cdc0080ff2f0000806000f04888002429ef007e
:100cec0000c2210010498800f148800000c021009a
:100cfc0001007000f048880000498000f001b3004a
:100d0c0000498800f148800080ff2f0000806000bf
:100d1c006000b300f04888002143a90025e3a90036
:100d2c0080c0b30024e3b7002043a8002119800041
:100d3c00f00f2e000080600000c0a0002019880079
:100d4c0001198000f0f12f00008060000060a0000d
:100d5c00001988001119800030f82f000080600005
:100d6c000020a0001019880001a8a90031428000c1
:100d7c00f0f82f00008060000040a0003042880096
:100d8c0021a8a80011198000f0cf2f00008060006e
:100d9c001019880001198000f0cf2f00008060002e
:100dac00001988002343a80030a3a8003163a800d1
:100dbc001f6ea800116ea8001fcea80011cea800af
:100dcc00112ea900152ea80021e3a8000080fa001e
:100ddc00000006000600fa00000f780011079800ca
:100dec00220798001e0078009e00900001087800f1
:100dfc001e007800ae009000110098001e007800d4
:100e0c008000eb00210098001e0078008000eb00b1
:100e1c00310098000080fa00000006000200fa0081
:100e2c00000f78001e007800a00090001e007800d3
:100e3c00300090000080680000f0a7000000ea007d
:100e4c000000e9004f00de000080fa000000060000
:100e5c000600fa0010079800414798001e00900009
:100e6c00200090008000e8001e0090001000900010
:100e7c0000017800110009008200d8008000fd00fc
:100e8c00000f78001e009000300090009e0f500064
:100e9c0002003a000080eb000b0037001e009000af
:100eac00900078001e009000200090000080400010
:100ebc00ce409000014878001e0090001e01780082
:100ecc00220098000000eb000080fa0000000600f1
:100edc000400fa00000f7800110798001e0078003b
:100eec00ceff07000000e000020032000080eb00a3
:100efc00150037001e007800900078001e00780066
:100f0c003000900000804000904078001e0090005f
:100f1c00014878001e007800300090008000e80046
:100f2c001e007800100090000001780011000900ec
:100f3c008200d8008000fd00800078001e00780040
:100f4c00310098000000eb000080fa000000060061
:100f5c000e00fa00889fbe008a9fbe008c9fbe00c8
:100f6c0050079800610798000080eb00000f780094
:100f7c0000202a00a1442000300798004107980067
:100f8c003e009000ce009000823e20000300200026
:100f9c00b8fd070010079800210798006e0090001c
:100fac00cf80de002e0190008091b9009e01900050
:100fbc00819ab90084017800030141009e019000e0
:100fcc000018b80001014100820078001007980059
:100fdc002107980010079800210798001e01900027
:100fec00ae019000f0ff2f0001002000800f510097
:100ffc00818f590003003c000000eb00000f7800cb
:10100c003d0037001e019000ae019000f0ff2f0054
:10101c0071002000800f5100818f590010003c009e
:10102c0010002000000f78001e009000ae00900011
:10103c00e00f5000e08f580002003d0067004000b8
:10104c00e08048004d09dd004306de000c0671000f
:10105c00c38ede001c0798002d0798002600370071
:10106c001e019000ae019000f0ff2f00f103200054
:10107c00800f5100818f590010003c00200020008f
:10108c00000f78001e009000ae009000e00f5000a2
:10109c00e08f580002003d00f003b0000180b0006a
:1010ac004a0add004605de000a057200c68dde0028
:1010bc001a0798002b0798000f003700300020000b
:1010cc00000f78001e009000ae009000e00f500062
:1010dc00e08f580002003d00f00fb0000180b0001e
:1010ec004809dd004804de0008047100c88cde00ed
:1010fc0018079800290798005e009000e10f500037
:10110c0026003a000421a90004c1a90005e1a900a8
:10111c000021ef000068a9001e0078000000e0002c
:10112c0005003a0021088000f0fc2f0000806000d0
:10113c0020088800160037001e007800e10f5000d0
:10114c0006003a0021088000f0fc2f0000806000af
:10115c000040a000200888000d0037001e00780019
:10116c00e20f500006003a0021088000f0fc2f002e
:10117c00008060000050a0002008880004003700a8
:10118c002108800000032000010070002008880066
:10119c001e0090001008880005e1a8004f06be0054
:1011ac004f05be004f04be000080fa000000060090
:1011bc000400fa00100798000000eb00000f780004
:1011cc001e009000e10f50000e003a00004080001d
:1011dc00680060000000e0000400320010002000f5
:1011ec00000f780001003700000000000040800074
:1011fc00680060000000e000fbff32000068a900fe
:10120c00000000001e0078000080fa0000000600bc
:10121c000600fa0010079800210798000000eb0068
:10122c00000f78002c0037001e007800ea00b9008f
:10123c009e00900000804000900078008100e80043
:10124c00010878001e007800ea00b9009e009000aa
:10125c000080400020009000e10f50001d003a007b
:10126c001e007800ea00b9009e009000008040004b
:10127c00900078001e007800ea00b9001e01900072
:10128c000000410010009000808f500011003500cc
:10129c001e007800ea00b9009e009000008040001b
:1012ac00b00090001e007800ea00b9001e0190000a
:1012bc000000410040009000010001001e00780079
:1012cc00ea00b9009e009000008040008000eb0016
:1012dc00010878001e0fe8002e0090009e00780098
:1012ec00808f5000d0ff35000080fa00000006000f
:1012fc000400fa00000f7800214798001e007800c7
:10130c0010007800e20f50000f003200e30f500085
:10131c004a003200e10f500071003a00ae409000dc
:10132c0040c2b30080cf50006c003a001e00780021
:10133c0021002000010878001e0078008000eb00de
:10134c002108980066003700ae409000c0c2b30080
:10135c0080cf50000e003a001e00780031002000b3
:10136c00010878001e007800200890009e0078008c
:10137c00008040000080e8008040eb0001487800cd
:10138c001e0078008000eb003108980054003700f4
:10139c001e00780020089000e50f500007003a006e
:1013ac001e00780011002000010878001e00780053
:1013bc008000eb002108980049003700ae409000f7
:1013cc00a0c2b30080cf50000f003a001e0078007e
:1013dc0011002000010878001e0078002008900001
:1013ec009e007800008040000080e8008040eb0008
:1013fc00014878001e0078008040eb0011489800ee
:10140c0010002000370037001e00780020089000e4
:10141c009e007800008040000080e800ae40900004
:10142c00014878001e007800200890008000e80039
:10143c001e0078002108980029003700ae4090006b
:10144c00a0c2b30080cf50000c003a001e00780000
:10145c0011002000010878001e0078003008900070
:10146c009e00780000804000680040008040eb0047
:10147c0011409800100020001a0037001e00780060
:10148c0030089000eb0f500007003a001e00780067
:10149c0011002000010878001e0078008000eb008d
:1014ac00310898000e0037001e00780030089000bc
:1014bc009e0078000080400068004000ae40900024
:1014cc00114098001e007800300890008000e80061
:1014dc001e00780031089800010037000000000061
:1014ec000000eb000080fa00000006000800fa0083
:1014fc00300798000000eb00000f78000000eb00b4
:10150c001007980010002000200798001e0078009b
:10151c00be0090000080400090407800d0c2b30024
:10152c0080cf500004003a000080eb0020079800a8
:10153c001e0fe8001a0037001e007800be00900055
:10154c000080400090407800b0c2b30080cf5000c3
:10155c0012003a0010002000200798001e0fe8002f
:10156c000f0037001e009000ea00b9001007980029
:10157c001e007800be0090000080400010407800f3
:10158c000000fb000003b1009e00900000804000b2
:10159c00100798001e0fe800010037000000000043
:1015ac001e007800be009000008040009040780043
:1015bc00c0c2b30080cf5000060032001e0078007d
:1015cc00be00900000804000104078000004e00055
:1015dc00e4ff3a00ae0090001e0090008088b90035
:1015ec000080fa00000006000400fa00000f7800ea
:1015fc0011079800030037001e0090000000e8005f
:10160c00100798001e0090001e00400090407800cb
:10161c00c0c2b30080cf5000050032001e00900005
:10162c001e004000104078000004e000f2ff3a0079
:10163c001e0090001e00400090407800c0c2b30015
:10164c0080cf500003003a001e0090000000e8001c
:10165c00100798001e0090000080fa0000000600a1
:10166c002a00fa0040179800ce109000310798001d
:10167c0010002000500798000000eb00000f7800cd
:10168c000000eb001007980010003700200220002b
:10169c000e00400080007800000021000cfe0700c6
:1016ac00ae6090006a00470011ff0700e10f500088
:1016bc0003003a0010002000000f78000a003700e9
:1016cc001e0090000000e8001007980000002100a8
:1016dc00d2fd07000000e00003003a001e0090005d
:1016ec00f20f5000e9ff34001e007800e10f5000ab
:1016fc0054003a006a0047000080e800014e2800c0
:10170c00fbfb07000000e0004f003a000e109000b9
:10171c00e20f50004c0034000000eb001007980062
:10172c000000eb00200798000000eb004007980039
:10173c003c0037006a00470069004000ae00900092
:10174c00a9ff0700400798001e0090000000e00071
:10175c0003003200e10f5000160032002c0037005d
:10176c004e0090000000e900000178002e0090006f
:10177c00ea004700e98040008080400030022000f1
:10178c000e004000e5fb07004e0090000000e90051
:10179c003002b0008040eb0001777800300220006e
:1017ac000e00400051ff0700be009000800878003a
:1017bc0017003700ce0090002e00900000805000e3
:1017cc00000178002e009000ea004700e9804000fc
:1017dc0080804000300220000e004000cffb07004c
:1017ec00ce0090002e009000008050003002b0001f
:1017fc008040eb0001777800300220000e004000a2
:10180c003aff0700be009000900098000000000016
:10181c00ce009000210798001e0090000000e80008
:10182c00100798008e1090002e009000808f5000b2
:10183c00050034001e009000e10f5000bdff340085
:10184c0001003700000000000080fa0000000600d4
:10185c000400fa00100798009e009000010f780019
:10186c001e00780020009000e10f500008003200ac
:10187c00e20f50000c0032000000e0000b003a00b8
:10188c008000eb000000eb000a00070007003700a7
:10189c001e007800900090001e0078001000780068
:1018ac000400070001003700000000000080fa006f
:1018bc00000006000e00fa0050079800610798001f
:1018cc00de0090006e009000008f5000de00900053
:1018dc006e009000008040001007980000c22100ac
:1018ec0020079800300620009e007800808f500062
:1018fc000200340040062000000f7800d0f92f00c1
:10190c009e007800808f500002003d00c0f92f002f
:10191c00000f78009e00900030062000808f500051
:10192c000200340040062000100798009e00900032
:10193c00d0f92f00808f500002003d00c0f92f001d
:10194c00100798009e0078002e0090008089b90046
:10195c00b04721000090b900c388de004f90de0034
:10196c0000805000300798009e0090002e009000e0
:10197c008089b900b04721000090b900c388de000f
:10198c004f90de0000805000400798003e00900011
:10199c000000e000110035004e0090000000e00057
:1019ac0006003500ce0190000001eb00be00900057
:1019bc000000eb001d0007001a0037004e009000dd
:1019cc000000ea008001eb0000017800be009000ee
:1019dc000000eb0015000700120037004e009000cd
:1019ec000000e000070035003e0090000000ea0017
:1019fc00ce0190000001eb008000eb000b00070013
:101a0c00080037004e0090008000ea003e00900075
:101a1c000000ea008001eb00010178008000eb007f
:101a2c00020007000080fa00000006000800fa001f
:101a3c00000f7800110798002207980033079800d0
:101a4c001e0078003048880000c221002048880021
:101a5c001e0090008048880000c221007048880059
:101a6c002e009000d048880000c22100c048880099
:101a7c003e0090002049880000c2210010498800d7
:101a8c000080fa00000006005c00fa00ccfb0700a6
:101a9c0021002000100020002dfd07000000eb00ad
:101aac00000f7800a00f20009e007800808f50005f
:101abc000f003a00207080006100600000f0a70069
:101acc000000ea000000e9004f00de000040780052
:101adc000080fb0061006000217080000100a1000b
:101aec0001007000207088000000eb00000f7800ef
:101afc000e80e80091002000c5fd070010002000ba
:0c1b0c00abfd07001e0fe800e6ff3700ed
:020000040000fa
:101b180010100000500000008000000000100000bd
:0c1b280010000000800000000000000021
:00000001FF
