:020000040000fa
:080000000002040000000000f2
:020000040000fa
:04000800fe020000f4
:020000040000fa
:04000c00fe020000f0
:020000040000fa
:04001000fe020000ec
:020000040000fa
:04001400fe020000e8
:020000040000fa
:04001800fe020000e4
:020000040000fa
:04001c00fe020000e0
:020000040000fa
:04002000fe020000dc
:020000040000fa
:04002400fe020000d8
:020000040000fa
:04002800fe020000d4
:020000040000fa
:04002c00fe020000d0
:020000040000fa
:04003000fe020000cc
:020000040000fa
:04003400fe020000c8
:020000040000fa
:04003800fe020000c4
:020000040000fa
:04003c00fe020000c0
:020000040000fa
:04004000fe020000bc
:020000040000fa
:04004400fe020000b8
:020000040000fa
:04004800fe020000b4
:020000040000fa
:04004c00fe020000b0
:020000040000fa
:04005000fe020000ac
:020000040000fa
:04005400fe020000a8
:020000040000fa
:04005800fe020000a4
:020000040000fa
:04005c00fe020000a0
:020000040000fa
:04006000fe0200009c
:020000040000fa
:04006400fe02000098
:020000040000fa
:04006800fe02000094
:020000040000fa
:04006c00fe02000090
:020000040000fa
:04007000fe0200008c
:020000040000fa
:04007400fe02000088
:020000040000fa
:04007800fe02000084
:020000040000fa
:04007c00fe02000080
:020000040000fa
:04008000fe0200007c
:020000040000fa
:04008400fe02000078
:020000040000fa
:04008800fe02000074
:020000040000fa
:04008c00fe02000070
:020000040000fa
:04009000fe0200006c
:020000040000fa
:04009400fe02000068
:020000040000fa
:04009800fe02000064
:020000040000fa
:04009c00fe02000060
:020000040000fa
:0400a000fe0200005c
:020000040000fa
:0400a400fe02000058
:020000040000fa
:0400a800fe02000054
:020000040000fa
:0400ac00fe02000050
:020000040000fa
:0400b000fe0200004c
:020000040000fa
:0400b400fe02000048
:020000040000fa
:0400b800fe02000044
:020000040000fa
:0400bc00fe02000040
:020000040000fa
:0400c000fe0200003c
:020000040000fa
:0400c400fe02000038
:020000040000fa
:0400c800fe02000034
:020000040000fa
:0400cc00fe02000030
:020000040000fa
:0400d000fe0200002c
:020000040000fa
:0400d400fe02000028
:020000040000fa
:0400d800fe02000024
:020000040000fa
:0400dc00fe02000020
:020000040000fa
:0400e000fe0200001c
:020000040000fa
:0400e400fe02000018
:020000040000fa
:0400e800fe02000014
:020000040000fa
:0400ec00fe02000010
:020000040000fa
:0400f000fe0200000c
:020000040000fa
:0400f400fe02000008
:020000040000fa
:0400f800fe02000004
:020000040000fa
:0400fc00fe02000000
:020000040000fa
:04010000fe020000fb
:020000040000fa
:04010400fe020000f7
:020000040000fa
:04010800fe020000f3
:020000040000fa
:04010c00fe020000ef
:020000040000fa
:04011000fe020000eb
:020000040000fa
:04011400fe020000e7
:020000040000fa
:04011800fe020000e3
:020000040000fa
:04011c00fe020000df
:020000040000fa
:04012000fe020000db
:020000040000fa
:04012400fe020000d7
:020000040000fa
:04012800fe020000d3
:020000040000fa
:04012c00fe020000cf
:020000040000fa
:04013000fe020000cb
:020000040000fa
:04013400fe020000c7
:020000040000fa
:04013800fe020000c3
:020000040000fa
:04013c00fe020000bf
:020000040000fa
:04014000fe020000bb
:020000040000fa
:04014400fe020000b7
:020000040000fa
:04014800fe020000b3
:020000040000fa
:04014c00fe020000af
:020000040000fa
:04015000fe020000ab
:020000040000fa
:04015400fe020000a7
:020000040000fa
:04015800fe020000a3
:020000040000fa
:04015c00fe0200009f
:020000040000fa
:04016000fe0200009b
:020000040000fa
:04016400fe02000097
:020000040000fa
:04016800fe02000093
:020000040000fa
:04016c00fe0200008f
:020000040000fa
:04017000fe0200008b
:020000040000fa
:04017400fe02000087
:020000040000fa
:04017800fe02000083
:020000040000fa
:04017c00fe0200007f
:020000040000fa
:04018000fe0200007b
:020000040000fa
:04018400fe02000077
:020000040000fa
:04018800fe02000073
:020000040000fa
:04018c00fe0200006f
:020000040000fa
:04019000fe0200006b
:020000040000fa
:04019400fe02000067
:020000040000fa
:04019800fe02000063
:020000040000fa
:04019c00fe0200005f
:020000040000fa
:0401a000fe0200005b
:020000040000fa
:0401a400fe02000057
:020000040000fa
:0401a800fe02000053
:020000040000fa
:0401ac00fe0200004f
:020000040000fa
:0401b000fe0200004b
:020000040000fa
:0401b400fe02000047
:020000040000fa
:0401b800fe02000043
:020000040000fa
:0401bc00fe0200003f
:020000040000fa
:0401c000fe0200003b
:020000040000fa
:0401c400fe02000037
:020000040000fa
:0401c800fe02000033
:020000040000fa
:0401cc00fe0200002f
:020000040000fa
:0401d000fe0200002b
:020000040000fa
:0401d400fe02000027
:020000040000fa
:0401d800fe02000023
:020000040000fa
:0401dc00fe0200001f
:020000040000fa
:0401e000fe0200001b
:020000040000fa
:0401e400fe02000017
:020000040000fa
:0401e800fe02000013
:020000040000fa
:0401ec00fe0200000f
:020000040000fa
:0401f000fe0200000b
:020000040000fa
:0401f400fe02000007
:020000040000fa
:0401f800fe02000003
:020000040000fa
:0401fc00fe020000ff
:020000040000fa
:04020000fe020000fa
:020000040000fa
:04020400fe020000f6
:020000040000fa
:04020800fe020000f2
:020000040000fa
:04020c00fe020000ee
:020000040000fa
:04021000fe020000ea
:020000040000fa
:04021400fe020000e6
:020000040000fa
:04021800fe020000e2
:020000040000fa
:04021c00fe020000de
:020000040000fa
:04022000fe020000da
:020000040000fa
:04022400fe020000d6
:020000040000fa
:04022800fe020000d2
:020000040000fa
:04022c00fe020000ce
:020000040000fa
:04023000fe020000ca
:020000040000fa
:04023400fe020000c6
:020000040000fa
:04023800fe020000c2
:020000040000fa
:04023c00fe020000be
:020000040000fa
:04024000fe020000ba
:020000040000fa
:04024400fe020000b6
:020000040000fa
:04024800fe020000b2
:020000040000fa
:04024c00fe020000ae
:020000040000fa
:04025000fe020000aa
:020000040000fa
:04025400fe020000a6
:020000040000fa
:04025800fe020000a2
:020000040000fa
:04025c00fe0200009e
:020000040000fa
:04026000fe0200009a
:020000040000fa
:04026400fe02000096
:020000040000fa
:100400000f0721000eff2d000e01880000000000e4
:10041000000020000000e000020032000001200087
:100420002002880014000700760007000000e000aa
:1004300003003a00a06b20000100200002003700fa
:100440000000200001002000810f70000100320038
:100450000f000700000020000000e0000200320052
:100460000000020000000000320502000000000051
:100470000040da000000fe00200020000000e00044
:1004800002003200100020009001880000000600e9
:10049000a1028800800478000000eb001f003700f4
:1004a000e284440054a0b4009905ba00e2844400f8
:1004b00054a0b4009906ba00e284440054a0b400e9
:1004c0000006eb00476fde00fd07b200ae018800ba
:1004d000636ce10003003a000ad801000000eb0061
:1004e0000e003700606ce10008003a00004deb00a0
:1004f0000a05e800020039003420ec000af0a000f0
:100500008b05e900f9ff3e00040037006168e10057
:10051000010032000086eb000b00070019c7ba008b
:100520000e04e0001905ba0003003a000a00e000da
:10053000dbff3a0000000600fe07b200ae028800b2
:100540008a047800f5ff37000cd0a300e20f4d00bd
:100550001c003b0089027800354dba000a05e8000e
:10056000020039003420ec000af0a0008b05e900fd
:100570000f003200254dba000a05e80002003900dc
:100580003420ec000af0a0008b05e90008003200de
:100590000c00e0000600320015cdba000a05e800a4
:1005a000020039003420ec000af0a0008b05e900bd
:1005b0008984e80054a0b4000b00e000e2ff3a0098
:1005c000000006009902ba00055d78008b05e9007d
:1005d000f7ff3200c82ade00055d78008b05e900d0
:1005e000f3ff32000c00e000f1ff320019ddba0029
:1005f000eeff370026050400000000000040da008e
:100600000000fe0000000500839f68000100e0007c
:1006100002003d0060001000e08018000300e000d0
:1006200002003d0060011100e08119000500070093
:100630004f00e00002003b0060001000e080180066
:10064000000006006022b800060220000000d00072
:100650008180d2000482d2008582d2000000a000f6
:100660000202520083825a0003003100020242005b
:1006700083824a000000a1000603e900f3ff3a006c
:040680000000060070
:020000040000fa
:100684000e00fa00889fbe008a9fbe008c9fbe00a9
:1006940050079800610798000080eb00000f780075
:1006a40000202a00a1442000300798004107980048
:1006b4003e009000ce009000823e20000300200007
:1006c400d0ff070010079800210798006e009000e3
:1006d400cf80de002e0190008091b9009e01900031
:1006e400819ab90084017800030141009e019000c1
:1006f4000018b8000101410082007800100798003a
:100704002107980010079800210798001e01900007
:10071400ae019000f0ff2f0001002000800f510077
:10072400818f590003003c000000eb00000f7800ab
:100734003d0037001e019000ae019000f0ff2f0035
:1007440071002000800f5100818f590010003c007f
:1007540010002000000f78001e009000ae009000f2
:10076400e00f5000e08f580002003d006700400099
:10077400e08048004d09dd004306de000c067100f0
:10078400c38ede001c0798002d0798002600370052
:100794001e019000ae019000f0ff2f00f103200035
:1007a400800f5100818f590010003c002000200070
:1007b400000f78001e009000ae009000e00f500083
:1007c400e08f580002003d00f003b0000180b0004b
:1007d4004a0add004605de000a057200c68dde0009
:1007e4001a0798002b0798000f00370030002000ec
:1007f400000f78001e009000ae009000e00f500043
:10080400e08f580002003d00f00fb0000180b000fe
:100814004809dd004804de0008047100c88cde00cd
:1008240018079800290798005e009000e10f500017
:1008340026003a000421a90004c1a90005e1a90089
:100844000021ef000068a9001e0078000000e0000d
:1008540005003a0021088000f0fc2f0000806000b1
:1008640020088800160037001e007800e10f5000b1
:1008740006003a0021088000f0fc2f000080600090
:100884000040a000200888000d0037001e007800fa
:10089400e20f500006003a0021088000f0fc2f000f
:1008a400008060000050a000200888000400370089
:1008b4002108800000032000010070002008880047
:1008c4001e0090001008880005e1a8004f06be0035
:1008d4004f05be004f04be000080fa000000060071
:1008e4000400fa00100798000000eb00000f7800e5
:1008f4001e009000e10f500010003a0001408000fb
:1009040000082000008060000000e00004003200c5
:1009140010002000000f78000100370000000000e4
:100924000140800000082000008060000000e0001a
:10093400faff320000e8a900000000001e00780061
:100944000080fa00000006000200fa000000eb003c
:10095400000f7800370037001e007800ea00b90065
:10096400800078008004210000804000100078009e
:100974008000e8001e007800ea01b900800421002c
:1009840000004100010878001e007800ea00b90068
:10099400e400400080042100008040001000780042
:1009a400e10f500022003a001e007800ea00b9006e
:1009b40080007800800421000080400090007800ce
:1009c4001e007800ea00b9000081e80080042100dc
:1009d4000000410010007800808f500014003500a2
:1009e4001e007800ea00b900e600400080042100ff
:1009f40000804000900078001e007800ea00b900f2
:100a040068014000800421000000410010007800cb
:100a1400010001001e007800ea00b900800078009f
:100a240080042100008040008000eb000108780071
:100a34001e0fe8001e007800e30f5000c6ff3400cc
:100a44000080fa00000006000400fa001007980075
:100a54009e009000010f78000080fa00000006005c
:100a64000200fa006e2eef0070738000707288002e
:100a740070728000f0718800f071800070718800dd
:100a840070718000f0708800f070800070708800d1
:100a9400c3e8a800410ea800110ea900502ea90019
:100aa400500ea900602ea900316ea80021368000e6
:100ab40000f82f0080806000b00420000100700066
:100ac40020368800401d2000401188002002a90023
:100ad4000111800090ff2f00008060000011880049
:100ae40020a2a9002062a9000168a9002142800077
:100af400f0ff28000080600000c0a00020428800b1
:100b040011118000f0f32f000080600010118800a4
:100b14002168a80001348000f00f2c0000806000e0
:100b240000c0a000003488001134800000fc2f00b5
:100b3400008060001001b30010348800113480007c
:100b4400f00f2c0080806000002021000100700064
:100b5400103488002134800000fc2f0000806000e5
:100b64003001b30020348800302ea900304ea90093
:100b7400306ea900308ea9000148800080ff2f004c
:100b840000806000004888000629ef0000c22100b0
:100b9400204888000148800000c021000100700046
:100ba4000048880010488000f001b3001048880015
:100bb4000148800080ff2f00008060006000b300c7
:100bc400004888005148800080ff2f0000806000aa
:100bd400504888001029ef0000c2210070488800a6
:100be4005148800000c02100010070005048880076
:100bf40060488000f001b3006048880051488000dc
:100c040080ff2f00008060006000b300504888001f
:100c1400a148800080ff2f0000806000a048880069
:100c24001a29ef0000c22100c0488800a1488000b2
:100c340000c0210001007000a0488800b048800076
:100c4400f001b300b0488800a148800080ff2f0065
:100c5400008060006000b300a0488800f148800074
:100c640080ff2f0000806000f04888002429ef00f6
:100c740000c2210010498800f148800000c0210012
:100c840001007000f048880000498000f001b300c2
:100c940000498800f148800080ff2f000080600038
:100ca4006000b300f04888000000eb00000f7800fb
:100cb4000000eb00408288000000eb0050828800b6
:100cc4006052200070828800000721008082880022
:100cd40010002000608288000000eb0090828800f1
:100ce4000000eb00a082880060522000c0828800cf
:100cf40000072100d082880010002000b082880004
:100d04000000eb00e08288000000eb00f082880025
:100d1400605220001083880000072100208388008f
:100d240010002000008388000000eb00308388005e
:100d34000000eb004083880060522000608388003c
:100d44000007210070838800100020005083880071
:100d5400110020001000200049fe0700fafe0700e1
:100d640010002000defe0700000f7800fbff3700b4
:020000040000fa
:100d7400081000006800000080000000001000005f
:0c0d8400080000008000000000000000db
:00000001FF
