:020000040000fa
:080000000002040000000000f2
:020000040000fa
:040008004a030000a7
:020000040000fa
:04000c004a030000a3
:020000040000fa
:040010004a0300009f
:020000040000fa
:040014004a0300009b
:020000040000fa
:040018004a03000097
:020000040000fa
:04001c004a03000093
:020000040000fa
:040020004a0300008f
:020000040000fa
:040024004a0300008b
:020000040000fa
:040028004a03000087
:020000040000fa
:04002c004a03000083
:020000040000fa
:040030004a0300007f
:020000040000fa
:040034004a0300007b
:020000040000fa
:040038004a03000077
:020000040000fa
:04003c004a03000073
:020000040000fa
:040040004a0300006f
:020000040000fa
:040044004a0300006b
:020000040000fa
:040048004a03000067
:020000040000fa
:04004c004a03000063
:020000040000fa
:040050004a0300005f
:020000040000fa
:040054000a0300009b
:020000040000fa
:040058004a03000057
:020000040000fa
:04005c004a03000053
:020000040000fa
:040060004a0300004f
:020000040000fa
:040064004a0300004b
:020000040000fa
:040068004a03000047
:020000040000fa
:04006c004a03000043
:020000040000fa
:040070004a0300003f
:020000040000fa
:040074004a0300003b
:020000040000fa
:040078004a03000037
:020000040000fa
:04007c004a03000033
:020000040000fa
:040080004a0300002f
:020000040000fa
:040084004a0300002b
:020000040000fa
:040088004a03000027
:020000040000fa
:04008c004a03000023
:020000040000fa
:040090004a0300001f
:020000040000fa
:040094004a0300001b
:020000040000fa
:040098004a03000017
:020000040000fa
:04009c004a03000013
:020000040000fa
:0400a0004a0300000f
:020000040000fa
:0400a4004a0300000b
:020000040000fa
:0400a8004a03000007
:020000040000fa
:0400ac004a03000003
:020000040000fa
:0400b0004a030000ff
:020000040000fa
:0400b4004a030000fb
:020000040000fa
:0400b8004a030000f7
:020000040000fa
:0400bc004a030000f3
:020000040000fa
:0400c0004a030000ef
:020000040000fa
:0400c4004a030000eb
:020000040000fa
:0400c8004a030000e7
:020000040000fa
:0400cc004a030000e3
:020000040000fa
:0400d0004a030000df
:020000040000fa
:0400d4004a030000db
:020000040000fa
:0400d8004a030000d7
:020000040000fa
:0400dc004a030000d3
:020000040000fa
:0400e0004a030000cf
:020000040000fa
:0400e4004a030000cb
:020000040000fa
:0400e8004a030000c7
:020000040000fa
:0400ec004a030000c3
:020000040000fa
:0400f0004a030000bf
:020000040000fa
:0400f4004a030000bb
:020000040000fa
:0400f8004a030000b7
:020000040000fa
:0400fc004a030000b3
:020000040000fa
:040100004a030000ae
:020000040000fa
:040104004a030000aa
:020000040000fa
:040108004a030000a6
:020000040000fa
:04010c004a030000a2
:020000040000fa
:040110004a0300009e
:020000040000fa
:040114004a0300009a
:020000040000fa
:040118004a03000096
:020000040000fa
:04011c004a03000092
:020000040000fa
:040120004a0300008e
:020000040000fa
:040124004a0300008a
:020000040000fa
:040128004a03000086
:020000040000fa
:04012c004a03000082
:020000040000fa
:040130004a0300007e
:020000040000fa
:040134004a0300007a
:020000040000fa
:040138004a03000076
:020000040000fa
:04013c004a03000072
:020000040000fa
:040140004a0300006e
:020000040000fa
:040144004a0300006a
:020000040000fa
:040148004a03000066
:020000040000fa
:04014c004a03000062
:020000040000fa
:040150004a0300005e
:020000040000fa
:040154004a0300005a
:020000040000fa
:040158004a03000056
:020000040000fa
:04015c004a03000052
:020000040000fa
:040160004a0300004e
:020000040000fa
:040164004a0300004a
:020000040000fa
:040168004a03000046
:020000040000fa
:04016c004a03000042
:020000040000fa
:040170004a0300003e
:020000040000fa
:040174004a0300003a
:020000040000fa
:040178004a03000036
:020000040000fa
:04017c004a03000032
:020000040000fa
:040180004a0300002e
:020000040000fa
:040184004a0300002a
:020000040000fa
:040188004a03000026
:020000040000fa
:04018c004a03000022
:020000040000fa
:040190004a0300001e
:020000040000fa
:040194004a0300001a
:020000040000fa
:040198004a03000016
:020000040000fa
:04019c004a03000012
:020000040000fa
:0401a0004a0300000e
:020000040000fa
:0401a4004a0300000a
:020000040000fa
:0401a8004a03000006
:020000040000fa
:0401ac004a03000002
:020000040000fa
:0401b0004a030000fe
:020000040000fa
:0401b4004a030000fa
:020000040000fa
:0401b8004a030000f6
:020000040000fa
:0401bc004a030000f2
:020000040000fa
:0401c0004a030000ee
:020000040000fa
:0401c4004a030000ea
:020000040000fa
:0401c8004a030000e6
:020000040000fa
:0401cc004a030000e2
:020000040000fa
:0401d0004a030000de
:020000040000fa
:0401d4004a030000da
:020000040000fa
:0401d8004a030000d6
:020000040000fa
:0401dc004a030000d2
:020000040000fa
:0401e0004a030000ce
:020000040000fa
:0401e4004a030000ca
:020000040000fa
:0401e8004a030000c6
:020000040000fa
:0401ec004a030000c2
:020000040000fa
:0401f0004a030000be
:020000040000fa
:0401f4004a030000ba
:020000040000fa
:0401f8004a030000b6
:020000040000fa
:0401fc004a030000b2
:020000040000fa
:040200004a030000ad
:020000040000fa
:040204004a030000a9
:020000040000fa
:040208004a030000a5
:020000040000fa
:04020c004a030000a1
:020000040000fa
:040210004a0300009d
:020000040000fa
:040214004a03000099
:020000040000fa
:040218004a03000095
:020000040000fa
:04021c004a03000091
:020000040000fa
:040220004a0300008d
:020000040000fa
:040224004a03000089
:020000040000fa
:040228004a03000085
:020000040000fa
:04022c004a03000081
:020000040000fa
:040230004a0300007d
:020000040000fa
:040234004a03000079
:020000040000fa
:040238004a03000075
:020000040000fa
:04023c004a03000071
:020000040000fa
:040240004a0300006d
:020000040000fa
:040244004a03000069
:020000040000fa
:040248004a03000065
:020000040000fa
:04024c004a03000061
:020000040000fa
:040250004a0300005d
:020000040000fa
:040254004a03000059
:020000040000fa
:040258004a03000055
:020000040000fa
:04025c004a03000051
:020000040000fa
:040260004a0300004d
:020000040000fa
:040264004a03000049
:020000040000fa
:100400000f0421000eff27000e01880000000000ed
:10041000000020000000e000020032000001200087
:1004200020028800140007009c0007000000e00084
:1004300003003a00409d2000010020000200370028
:100440000000200001002000810f70000100320038
:100450000f000700000020000000e0000200320052
:100460000000020000000000380802000000000048
:100470000040da000000fe00200020000000e00044
:1004800002003200100020009001880000000600e9
:10049000a1028800800478000000eb001f003700f4
:1004a000e284440054a0b4009905ba00e2844400f8
:1004b00054a0b4009906ba00e284440054a0b400e9
:1004c0000006eb00476fde00fd07b200ae018800ba
:1004d000636ce10003003a000ad801000000eb0061
:1004e0000e003700606ce10008003a00004deb00a0
:1004f0000a05e800020039003420ec000af0a000f0
:100500008b05e900f9ff3e00040037006168e10057
:10051000010032000086eb000b00070019c7ba008b
:100520000e04e0001905ba0003003a000a00e000da
:10053000dbff3a0000000600fe07b200ae028800b2
:100540008a047800f5ff37000cd0a300e20f4d00bd
:100550001c003b0089027800354dba000a05e8000e
:10056000020039003420ec000af0a0008b05e900fd
:100570000f003200254dba000a05e80002003900dc
:100580003420ec000af0a0008b05e90008003200de
:100590000c00e0000600320015cdba000a05e800a4
:1005a000020039003420ec000af0a0008b05e900bd
:1005b0008984e80054a0b4000b00e000e2ff3a0098
:1005c000000006009902ba00055d78008b05e9007d
:1005d000f7ff3200c82ade00055d78008b05e900d0
:1005e000f3ff32000c00e000f1ff320019ddba0029
:1005f000eeff37002c060400000000002008040075
:10060000000000002808040000000000300804007a
:10061000000000003600f800809fbe00829fbe00f0
:10062000849fbe00869fbe003200f8003400f800b0
:1006300010002000a00188001000200000d0fe0063
:100640000000fa000168a9000500370030118000a1
:100650000040780080407800000021004e00070034
:1006600010118000610060000000e000f7ff3a0018
:100670000080fa003400f9003200f9004f03be0098
:100680004f02be004f01be004f00be003600f90011
:10069000004006000040da000000fe0000000500f7
:1006a000839f68000100e00002003d006000100030
:1006b000e08018000300e00002003d00600111002e
:1006c000e0811900050007004f00e00002003b0038
:1006d00060001000e0801800000006006022b800f2
:1006e000060220000000d0008180d2000482d200e7
:1006f0008582d2000000a0000202520083825a00cc
:10070000030031000202420083824a000000a1007f
:0c0710000603e900f3ff3a0000000600b9
:020000040000fa
:10071c000600fa00000f78001107980022079800d5
:10072c001e0078009e009000010878001e007800e2
:10073c00ae009000110098001e0078008000eb00c5
:10074c00210098001e0078008000eb00310098001a
:10075c000080fa00000006000200fa00000f78008a
:10076c001e007800a00090001e0078003000900061
:10077c000080680000f0a7000000ea000000e9001b
:10078c004f00de000080fa00000006000600fa00b0
:10079c0010079800414798001e0090002000900020
:1007ac008000e8001e00900010009000000178000e
:1007bc00110009008200d8008000fd00000f7800b5
:1007cc001e009000300090009e0f500002003a0076
:1007dc000080eb000b0037001e00900090007800aa
:1007ec001e0090002000900000804000ce40900041
:1007fc00014878001e0090001e017800220098002d
:10080c000000eb000080fa00000006000400fa0073
:10081c00000f7800110798001e007800ceff07002b
:10082c000000e000020032000080eb0015003700f1
:10083c001e007800900078001e00780030009000b8
:10084c0000804000904078001e0090000148780025
:10085c001e007800300090008000e8001e00780038
:10086c001000900000017800110009008200d800ef
:10087c008000fd00800078001e0078003100980098
:10088c000000eb000080fa00000006000e00fa00e9
:10089c00889fbe008a9fbe008c9fbe0050079800a8
:1008ac00610798000080eb00000f780000202a0000
:1008bc00a144200030079800410798003e009000aa
:1008cc00ce009000823e20000300200071ff070044
:1008dc0010079800210798006e009000cf80de0072
:1008ec002e0190008091b9009e019000819ab90070
:1008fc0084017800030141009e0190000018b800ab
:10090c00010141008200780010079800210798002f
:10091c0010079800210798001e019000ae0190006e
:10092c00f0ff2f0001002000800f5100818f590033
:10093c0003003c000000eb00000f78003d00370086
:10094c001e019000ae019000f0ff2f0071002000fe
:10095c00800f5100818f590010003c0010002000c6
:10096c00000f78001e009000ae009000e00f5000c9
:10097c00e08f580002003d0067004000e080480016
:10098c004d09dd004306de000c067100c38ede004f
:10099c001c0798002d079800260037001e019000b8
:1009ac00ae019000f0ff2f00f1032000800f5100ea
:1009bc00818f590010003c0020002000000f7800af
:1009cc001e009000ae009000e00f5000e08f580029
:1009dc0002003d00f003b0000180b0004a0add00c7
:1009ec004605de000a057200c68dde001a07980067
:1009fc002b0798000f00370030002000000f780004
:100a0c001e009000ae009000e00f5000e08f5800e8
:100a1c0002003d00f00fb0000180b0004809dd007d
:100a2c004804de0008047100c88cde00180798002a
:100a3c00290798005e009000e10f500026003a0054
:100a4c000421a90004c1a90005e1a9000021ef00bf
:100a5c000068a9001e0078000000e00005003a00c4
:100a6c0021088000f0fc2f00008060002008880026
:100a7c00160037001e007800e10f500006003a0007
:100a8c0021088000f0fc2f00008060000040a000d6
:100a9c00200888000d0037001e007800e20f50007f
:100aac0006003a0021088000f0fc2f000080600056
:100abc000050a000200888000400370021088000a6
:100acc000003200001007000200888001e00900028
:100adc001008880005e1a8004f06be004f05be00b7
:100aec004f04be000080fa00000006000400fa006b
:100afc00100798000000eb00000f78001e0090001b
:100b0c00e10f50000e003a000040800068006000c9
:100b1c000000e0000400320010002000000f7800fc
:100b2c0001003700000000000040800068006000f9
:100b3c000000e000fbff32000068a900000000008c
:100b4c001e0078000080fa00000006000200fa0087
:100b5c000000eb00000f7800370037001e00780013
:100b6c00ea00b9008000780080012100008040007c
:100b7c00100078008000e8001e007800ea01b9003f
:100b8c008001210000004100010878001e0078005f
:100b9c00ea00b900e4004000800121000080400020
:100bac0010007800e10f500022003a001e0078007f
:100bbc00ea00b9008000780080012100008040002c
:100bcc00900078001e007800ea00b9000081e8006f
:100bdc00800121000000410010007800808f50003f
:100bec00140035001e007800ea00b900e600400051
:100bfc008001210000804000900078001e007800e9
:100c0c00ea00b900680140008001210000004100a9
:100c1c0010007800010001001e007800ea00b90005
:100c2c008000780080012100008040008000eb00f3
:100c3c00010878001e0fe8001e007800e30f50003a
:100c4c00c6ff34000080fa00000006001c00fa0009
:100c5c00500f9800de089000110798000000eb0080
:100c6c00000f78000080eb00300f980085003700f3
:100c7c002168a9001e007800e600470000804000b3
:100c8c008000780000002100e0fe07002168a80029
:100c9c001e007800ee0f50000c003a009e00780009
:100cac0066804000ee407800a0c2b30080cf5000b8
:100cbc00060032001e0090008000eb00210098001e
:100ccc000000eb00000f78006e0037009e007800eb
:100cdc0066804000ee407800a0c2b30080cf500088
:100cec0067003a009e00780066804000d1c2b300d5
:100cfc00017778001e0fe9009e007800310f9800f4
:100d0c00ee40900040c2b30080cf500056003a0035
:100d1c00fe40900020c5b30080cf500052003a0036
:100d2c008e48900050c4b30080cf50004e003a0063
:100d3c009e48900060c4b30080cf50004a003a0037
:100d4c00ae489000c0c2b30080cf500046003a00bd
:100d5c000000eb00400f980078014700f6004700b8
:100d6c00660047004d000700200798002e009000f9
:100d7c000000e0000e0032003e08900066004000cb
:100d8c00ee407800c0c2b30080cf500008003a009b
:100d9c00ce08900040062000808f500004003c00dc
:100dac00ce089000c0f92f00808f500006003d0047
:100dbc001e0090008000eb00210098000080eb00ea
:100dcc00000f78002f003700ce0890001e00900016
:100ddc00110098003e0890000000e900300f9800c8
:100dec0078014700f6004700660047002b0007001b
:100dfc00200798002e0090000000e0000e0032004a
:100e0c003e08900066004000ee407800c0c2b3007f
:100e1c0080cf500008003a00ce0890004006200019
:100e2c00808f500004003c00ce089000c0f92f00c9
:100e3c00808f500006003d001e0090008000eb00eb
:100e4c00210098000080eb00000f78000d003700a7
:100e5c00ce0890001e009000010878000080eb0086
:100e6c00000f7800060037001e0090008000eb0099
:100e7c00210098000080eb00000f78000100370083
:100e8c001e0fe8000000210033fe07000000e00008
:100e9c0077ff32000080fa00000006000e00fa0016
:100eac004007980051079800620798005e00900078
:100ebc001000780063005000300798000000eb0031
:100ecc00000f780010002000100798006e009000b2
:100edc008000eb00010878005e0090009000780024
:100eec0021079800490037002e009000ce0090009a
:100efc000080400090407800c0c2b30080cf50000a
:100f0c0005003a005e009000ae00900001087800e9
:100f1c001e007800450037002e009000ce00900097
:100f2c000080400090407800d0c2b30080cf5000c9
:100f3c000c003a005e009000100078008000e90080
:100f4c005e009000010878006e00900010007800a0
:100f5c008000ea006e009000010878001e00780006
:100f6c00320037002e009000ce0090000080400030
:100f7c0090407800f0c2b30080cf500007003400de
:100f8c002e009000ce009000008040009040780031
:100f9c0090c3b30080cf5000020034000000eb007f
:100fac00220037005e009000100078008000e900fd
:100fbc005e009000010878006e00900090007800b0
:100fcc002e0090004e01900000004100104078006f
:100fdc000000fb0002fd2f00000141001e009000ec
:100fec008090b900808040006e009000010878006d
:100ffc001e009000ea00b900100798001e0fe800d0
:10100c002e0090000000e90020079800ae00900030
:10101c003e009000808f5000030035002e009000a1
:10102c000000e000b0ff3d001e0078000080fa00d8
:10103c00000006000200fa00000f78000080fa00a1
:10104c00000006000200fa00000f78000080fa0091
:10105c00000006000200fa00000f78000080fa0081
:10106c00000006000800fa006e2eef00707380007e
:10107c007072880070728000f0718800f0718000ce
:10108c007071880070718000f0708800f0708000c2
:10109c0070708800c3e8a800410ea800110ea900ca
:1010ac00502ea900500ea900602ea900316ea80088
:1010bc002136800000f82f0080806000b0042000f2
:1010cc000100700020368800401d2000401188006f
:1010dc002002a9000111800090ff2f000080600009
:1010ec000011880020a2a9002062a9000168a900b3
:1010fc0021428000f0ff28000080600000c0a000aa
:10110c002042880011118000f0f32f000080600055
:10111c00101188002168a80001348000f00f2c0009
:10112c000080600000c0a0000034880011348000f2
:10113c0000fc2f00008060001001b3001034880008
:10114c0011348000f00f2c00808060000020210002
:10115c0001007000103488002134800000fc2f0046
:10116c00008060003001b30020348800302ea900cc
:10117c00304ea900306ea900308ea90001488000c5
:10118c0080ff2f0000806000004888000629ef00d7
:10119c0000c22100204888000148800000c02100c6
:1011ac00010070000048880010488000f001b30076
:1011bc00104888000148800080ff2f0000806000ec
:1011cc006000b300004888005148800080ff2f0069
:1011dc0000806000504888001029ef0000c22100f8
:1011ec00704888005148800000c021000100700048
:1011fc005048880060488000f001b30060488800c7
:10120c005148800080ff2f00008060006000b30018
:10121c0050488800a148800080ff2f0000806000ab
:10122c00a04888001a29ef0000c22100c04888009d
:10123c00a148800000c0210001007000a048880077
:10124c00b0488000f001b300b0488800a14880008d
:10125c0080ff2f00008060006000b300a048880071
:10126c00f148800080ff2f0000806000f04888006b
:10127c002429ef0000c2210010498800f1488000a9
:10128c0000c0210001007000f04888000049800077
:10129c00f001b30000498800f148800080ff2f0066
:1012ac00008060006000b300f04888000000eb0094
:1012bc00000f78000000eb00100798000000eb0016
:1012cc00200798000000eb00300798000000eb00ae
:1012dc00c080880030002000d0808800c0622000d0
:1012ec00f08088000e80e80000818800100020004b
:1012fc00e08088000000eb00108188004000200096
:10130c002081880000822000408188000e80e80047
:10131c005081880010002000308188000080eb0094
:10132c00608188002000200070818800808220006d
:10133c00908188000e80e800a081880010002000b9
:10134c00808188000000eb00b0818800a0002000a4
:10135c00c081880000832000e08188000e80e800b6
:10136c00f081880010002000d081880051002000fe
:10137c001000200045fd0700020120008100210023
:10138c0000002100e2fc0700f0fd07001000200027
:0c139c00d6fd0700000f7800fbff3700b3
:020000040000fa
:1013a8000810000038000000800000000010000055
:0c13b800080000008000000000000000a1
:00000001FF
